{
  "_format": "hh-sol-artifact-1",
  "contractName": "Vesting",
  "sourceName": "contracts/vesting/Vesting.sol",
  "abi": [
    {
      "inputs": [
        {
          "internalType": "address",
          "name": "_token",
          "type": "address"
        },
        {
          "internalType": "address",
          "name": "_beneficiary",
          "type": "address"
        },
        {
          "internalType": "uint256",
          "name": "_cliffDuration",
          "type": "uint256"
        },
        {
          "internalType": "uint256",
          "name": "_duration",
          "type": "uint256"
        },
        {
          "internalType": "uint256",
          "name": "_totalAllocation",
          "type": "uint256"
        },
        {
          "internalType": "address",
          "name": "_guardian",
          "type": "address"
        }
      ],
      "stateMutability": "nonpayable",
      "type": "constructor"
    },
    {
      "inputs": [],
      "name": "IsPaused",
      "type": "error"
    },
    {
      "inputs": [],
      "name": "NotBeneficiary",
      "type": "error"
    },
    {
      "inputs": [],
      "name": "NothingToRelease",
      "type": "error"
    },
    {
      "inputs": [],
      "name": "OnlyGuardian",
      "type": "error"
    },
    {
      "anonymous": false,
      "inputs": [
        {
          "indexed": true,
          "internalType": "address",
          "name": "guardian",
          "type": "address"
        }
      ],
      "name": "Paused",
      "type": "event"
    },
    {
      "anonymous": false,
      "inputs": [
        {
          "indexed": true,
          "internalType": "address",
          "name": "beneficiary",
          "type": "address"
        },
        {
          "indexed": false,
          "internalType": "uint256",
          "name": "amount",
          "type": "uint256"
        }
      ],
      "name": "Released",
      "type": "event"
    },
    {
      "anonymous": false,
      "inputs": [
        {
          "indexed": true,
          "internalType": "address",
          "name": "guardian",
          "type": "address"
        }
      ],
      "name": "Unpaused",
      "type": "event"
    },
    {
      "inputs": [],
      "name": "beneficiary",
      "outputs": [
        {
          "internalType": "address",
          "name": "",
          "type": "address"
        }
      ],
      "stateMutability": "view",
      "type": "function"
    },
    {
      "inputs": [],
      "name": "cliffDuration",
      "outputs": [
        {
          "internalType": "uint256",
          "name": "",
          "type": "uint256"
        }
      ],
      "stateMutability": "view",
      "type": "function"
    },
    {
      "inputs": [],
      "name": "duration",
      "outputs": [
        {
          "internalType": "uint256",
          "name": "",
          "type": "uint256"
        }
      ],
      "stateMutability": "view",
      "type": "function"
    },
    {
      "inputs": [],
      "name": "guardian",
      "outputs": [
        {
          "internalType": "address",
          "name": "",
          "type": "address"
        }
      ],
      "stateMutability": "view",
      "type": "function"
    },
    {
      "inputs": [],
      "name": "pause",
      "outputs": [],
      "stateMutability": "nonpayable",
      "type": "function"
    },
    {
      "inputs": [],
      "name": "paused",
      "outputs": [
        {
          "internalType": "bool",
          "name": "",
          "type": "bool"
        }
      ],
      "stateMutability": "view",
      "type": "function"
    },
    {
      "inputs": [],
      "name": "releasableAmount",
      "outputs": [
        {
          "internalType": "uint256",
          "name": "",
          "type": "uint256"
        }
      ],
      "stateMutability": "view",
      "type": "function"
    },
    {
      "inputs": [],
      "name": "release",
      "outputs": [],
      "stateMutability": "nonpayable",
      "type": "function"
    },
    {
      "inputs": [],
      "name": "released",
      "outputs": [
        {
          "internalType": "uint256",
          "name": "",
          "type": "uint256"
        }
      ],
      "stateMutability": "view",
      "type": "function"
    },
    {
      "inputs": [],
      "name": "start",
      "outputs": [
        {
          "internalType": "uint256",
          "name": "",
          "type": "uint256"
        }
      ],
      "stateMutability": "view",
      "type": "function"
    },
    {
      "inputs": [],
      "name": "token",
      "outputs": [
        {
          "internalType": "contract IERC20",
          "name": "",
          "type": "address"
        }
      ],
      "stateMutability": "view",
      "type": "function"
    },
    {
      "inputs": [],
      "name": "totalAllocation",
      "outputs": [
        {
          "internalType": "uint256",
          "name": "",
          "type": "uint256"
        }
      ],
      "stateMutability": "view",
      "type": "function"
    },
    {
      "inputs": [],
      "name": "unpause",
      "outputs": [],
      "stateMutability": "nonpayable",
      "type": "function"
    },
    {
      "inputs": [],
      "name": "vestedAmount",
      "outputs": [
        {
          "internalType": "uint256",
          "name": "",
          "type": "uint256"
        }
      ],
      "stateMutability": "view",
      "type": "function"
    },
    {
      "inputs": [],
      "name": "vestingSchedule",
      "outputs": [
        {
          "internalType": "uint256",
          "name": "_start",
          "type": "uint256"
        },
        {
          "internalType": "uint256",
          "name": "_cliff",
          "type": "uint256"
        },
        {
          "internalType": "uint256",
          "name": "_duration",
          "type": "uint256"
        }
      ],
      "stateMutability": "view",
      "type": "function"
    }
  ],
  "bytecode": "0x6101606040523480156200001257600080fd5b50604051620014fb380380620014fb83398181016040528101906200003891906200038a565b600073ffffffffffffffffffffffffffffffffffffffff168673ffffffffffffffffffffffffffffffffffffffff1603620000aa576040517f08c379a0000000000000000000000000000000000000000000000000000000008152600401620000a19062000487565b60405180910390fd5b600073ffffffffffffffffffffffffffffffffffffffff168573ffffffffffffffffffffffffffffffffffffffff16036200011c576040517f08c379a00000000000000000000000000000000000000000000000000000000081526004016200011390620004f9565b60405180910390fd5b600073ffffffffffffffffffffffffffffffffffffffff168173ffffffffffffffffffffffffffffffffffffffff16036200018e576040517f08c379a000000000000000000000000000000000000000000000000000000000815260040162000185906200056b565b60405180910390fd5b83831015620001d4576040517f08c379a0000000000000000000000000000000000000000000000000000000008152600401620001cb90620005dd565b60405180910390fd5b600082116200021a576040517f08c379a000000000000000000000000000000000000000000000000000000000815260040162000211906200064f565b60405180910390fd5b8573ffffffffffffffffffffffffffffffffffffffff1660808173ffffffffffffffffffffffffffffffffffffffff16815250508473ffffffffffffffffffffffffffffffffffffffff1660a08173ffffffffffffffffffffffffffffffffffffffff16815250504260c081815250508360e081815250508261010081815250508161012081815250508073ffffffffffffffffffffffffffffffffffffffff166101408173ffffffffffffffffffffffffffffffffffffffff168152505050505050505062000671565b600080fd5b600073ffffffffffffffffffffffffffffffffffffffff82169050919050565b60006200031782620002ea565b9050919050565b62000329816200030a565b81146200033557600080fd5b50565b60008151905062000349816200031e565b92915050565b6000819050919050565b62000364816200034f565b81146200037057600080fd5b50565b600081519050620003848162000359565b92915050565b60008060008060008060c08789031215620003aa57620003a9620002e5565b5b6000620003ba89828a0162000338565b9650506020620003cd89828a0162000338565b9550506040620003e089828a0162000373565b9450506060620003f389828a0162000373565b93505060806200040689828a0162000373565b92505060a06200041989828a0162000338565b9150509295509295509295565b600082825260208201905092915050565b7f746f6b656e3d3000000000000000000000000000000000000000000000000000600082015250565b60006200046f60078362000426565b91506200047c8262000437565b602082019050919050565b60006020820190508181036000830152620004a28162000460565b9050919050565b7f62656e65666963696172793d3000000000000000000000000000000000000000600082015250565b6000620004e1600d8362000426565b9150620004ee82620004a9565b602082019050919050565b600060208201905081810360008301526200051481620004d2565b9050919050565b7f677561726469616e3d3000000000000000000000000000000000000000000000600082015250565b600062000553600a8362000426565b915062000560826200051b565b602082019050919050565b60006020820190508181036000830152620005868162000544565b9050919050565b7f6475726174696f6e3c636c696666000000000000000000000000000000000000600082015250565b6000620005c5600e8362000426565b9150620005d2826200058d565b602082019050919050565b60006020820190508181036000830152620005f881620005b6565b9050919050565b7f616c6c6f636174696f6e3d300000000000000000000000000000000000000000600082015250565b600062000637600c8362000426565b91506200064482620005ff565b602082019050919050565b600060208201905081810360008301526200066a8162000628565b9050919050565b60805160a05160c05160e051610100516101205161014051610dc662000735600039600081816102cc015281816104d801526105db0152600081816104510152818161049c01526105b70152600081816102840152818161042a0152818161047a01526105430152600081816103f80152818161052201526109960152600081816103ca0152818161050101526109720152600081816102a8015281816106d40152818161083a01526108fb0152600081816107fe01526109ba0152610dc66000f3fe608060405234801561001057600080fd5b50600436106100f55760003560e01c80635c975abb116100975780639613252111610066578063961325211461020a578063be9a655514610228578063d85349f714610246578063fc0c546a14610264576100f5565b80635c975abb146101ba57806379203dc4146101d85780638456cb59146101f657806386d1a69f14610200576100f5565b806344b1231f116100d357806344b1231f14610140578063452a93201461015e5780634b6804441461017c5780635b9400811461019c576100f5565b80630fb5a6b4146100fa57806338af3eed146101185780633f4ba83a14610136575b600080fd5b610102610282565b60405161010f91906109f5565b60405180910390f35b6101206102a6565b60405161012d9190610a51565b60405180910390f35b61013e6102ca565b005b6101486103c5565b60405161015591906109f5565b60405180910390f35b6101666104d6565b6040516101739190610a51565b60405180910390f35b6101846104fa565b60405161019393929190610a6c565b60405180910390f35b6101a461056d565b6040516101b191906109f5565b60405180910390f35b6101c26105a2565b6040516101cf9190610abe565b60405180910390f35b6101e06105b5565b6040516101ed91906109f5565b60405180910390f35b6101fe6105d9565b005b6102086106d2565b005b61021261096a565b60405161021f91906109f5565b60405180910390f35b610230610970565b60405161023d91906109f5565b60405180910390f35b61024e610994565b60405161025b91906109f5565b60405180910390f35b61026c6109b8565b6040516102799190610b38565b60405180910390f35b7f000000000000000000000000000000000000000000000000000000000000000081565b7f000000000000000000000000000000000000000000000000000000000000000081565b7f000000000000000000000000000000000000000000000000000000000000000073ffffffffffffffffffffffffffffffffffffffff163373ffffffffffffffffffffffffffffffffffffffff161461034f576040517fcae1d95600000000000000000000000000000000000000000000000000000000815260040160405180910390fd5b600160009054906101000a900460ff16156103c3576000600160006101000a81548160ff0219169083151502179055503373ffffffffffffffffffffffffffffffffffffffff167f5db9ee0a495bf2e6ff9c91a7834c1ba4fdd244a5e8aa4e537bd38aeae4b073aa60405160405180910390a25b565b6000807f0000000000000000000000000000000000000000000000000000000000000000426103f49190610b82565b90507f00000000000000000000000000000000000000000000000000000000000000008110156104285760009150506104d3565b7f00000000000000000000000000000000000000000000000000000000000000008110610478577f00000000000000000000000000000000000000000000000000000000000000009150506104d3565b7f0000000000000000000000000000000000000000000000000000000000000000817f00000000000000000000000000000000000000000000000000000000000000006104c59190610bb6565b6104cf9190610c27565b9150505b90565b7f000000000000000000000000000000000000000000000000000000000000000081565b60008060007f00000000000000000000000000000000000000000000000000000000000000007f00000000000000000000000000000000000000000000000000000000000000007f0000000000000000000000000000000000000000000000000000000000000000925092509250909192565b6000806105786103c5565b9050600054811161058d57600091505061059f565b6000548161059b9190610b82565b9150505b90565b600160009054906101000a900460ff1681565b7f000000000000000000000000000000000000000000000000000000000000000081565b7f000000000000000000000000000000000000000000000000000000000000000073ffffffffffffffffffffffffffffffffffffffff163373ffffffffffffffffffffffffffffffffffffffff161461065e576040517fcae1d95600000000000000000000000000000000000000000000000000000000815260040160405180910390fd5b600160009054906101000a900460ff166106d05760018060006101000a81548160ff0219169083151502179055503373ffffffffffffffffffffffffffffffffffffffff167f62e78cea01bee320cd4e420270b5ea74000d11b0c9f74754ebdbfc544b05a25860405160405180910390a25b565b7f000000000000000000000000000000000000000000000000000000000000000073ffffffffffffffffffffffffffffffffffffffff163373ffffffffffffffffffffffffffffffffffffffff1614610757576040517f644d871f00000000000000000000000000000000000000000000000000000000815260040160405180910390fd5b600160009054906101000a900460ff161561079e576040517f1309a56300000000000000000000000000000000000000000000000000000000815260040160405180910390fd5b60006107a861056d565b9050600081036107e4576040517fb10205ed00000000000000000000000000000000000000000000000000000000815260040160405180910390fd5b806000808282546107f59190610c58565b925050819055507f000000000000000000000000000000000000000000000000000000000000000073ffffffffffffffffffffffffffffffffffffffff1663a9059cbb7f0000000000000000000000000000000000000000000000000000000000000000836040518363ffffffff1660e01b8152600401610877929190610c8c565b6020604051808303816000875af1158015610896573d6000803e3d6000fd5b505050506040513d601f19601f820116820180604052508101906108ba9190610ce6565b6108f9576040517f08c379a00000000000000000000000000000000000000000000000000000000081526004016108f090610d70565b60405180910390fd5b7f000000000000000000000000000000000000000000000000000000000000000073ffffffffffffffffffffffffffffffffffffffff167fb21fb52d5749b80f3182f8c6992236b5e5576681880914484d7f4c9b062e619e8260405161095f91906109f5565b60405180910390a250565b60005481565b7f000000000000000000000000000000000000000000000000000000000000000081565b7f000000000000000000000000000000000000000000000000000000000000000081565b7f000000000000000000000000000000000000000000000000000000000000000081565b6000819050919050565b6109ef816109dc565b82525050565b6000602082019050610a0a60008301846109e6565b92915050565b600073ffffffffffffffffffffffffffffffffffffffff82169050919050565b6000610a3b82610a10565b9050919050565b610a4b81610a30565b82525050565b6000602082019050610a666000830184610a42565b92915050565b6000606082019050610a8160008301866109e6565b610a8e60208301856109e6565b610a9b60408301846109e6565b949350505050565b60008115159050919050565b610ab881610aa3565b82525050565b6000602082019050610ad36000830184610aaf565b92915050565b6000819050919050565b6000610afe610af9610af484610a10565b610ad9565b610a10565b9050919050565b6000610b1082610ae3565b9050919050565b6000610b2282610b05565b9050919050565b610b3281610b17565b82525050565b6000602082019050610b4d6000830184610b29565b92915050565b7f4e487b7100000000000000000000000000000000000000000000000000000000600052601160045260246000fd5b6000610b8d826109dc565b9150610b98836109dc565b9250828203905081811115610bb057610baf610b53565b5b92915050565b6000610bc1826109dc565b9150610bcc836109dc565b9250828202610bda816109dc565b91508282048414831517610bf157610bf0610b53565b5b5092915050565b7f4e487b7100000000000000000000000000000000000000000000000000000000600052601260045260246000fd5b6000610c32826109dc565b9150610c3d836109dc565b925082610c4d57610c4c610bf8565b5b828204905092915050565b6000610c63826109dc565b9150610c6e836109dc565b9250828201905080821115610c8657610c85610b53565b5b92915050565b6000604082019050610ca16000830185610a42565b610cae60208301846109e6565b9392505050565b600080fd5b610cc381610aa3565b8114610cce57600080fd5b50565b600081519050610ce081610cba565b92915050565b600060208284031215610cfc57610cfb610cb5565b5b6000610d0a84828501610cd1565b91505092915050565b600082825260208201905092915050565b7f7472616e73666572206661696c65640000000000000000000000000000000000600082015250565b6000610d5a600f83610d13565b9150610d6582610d24565b602082019050919050565b60006020820190508181036000830152610d8981610d4d565b905091905056fea2646970667358221220956a12aed78afcdb17f5c7faf320d0edd6d7e730bc8d9b09738c7b0769dc113d64736f6c63430008140033",
  "linkReferences": {},
  "deployedLinkReferences": {}
}