{
  "_format": "hh-sol-artifact-1",
  "contractName": "BuilderRegistry",
  "sourceName": "contracts/BuilderRegistry.sol",
  "abi": [
    {
      "inputs": [
        {
          "internalType": "address",
          "name": "governance_",
          "type": "address"
        }
      ],
      "stateMutability": "nonpayable",
      "type": "constructor"
    },
    {
      "inputs": [
        {
          "internalType": "address",
          "name": "wallet",
          "type": "address"
        }
      ],
      "name": "AlreadyRegistered",
      "type": "error"
    },
    {
      "inputs": [],
      "name": "EmptyName",
      "type": "error"
    },
    {
      "inputs": [],
      "name": "InvalidAddress",
      "type": "error"
    },
    {
      "inputs": [],
      "name": "InvalidCategory",
      "type": "error"
    },
    {
      "inputs": [
        {
          "internalType": "address",
          "name": "wallet",
          "type": "address"
        }
      ],
      "name": "NotRegistered",
      "type": "error"
    },
    {
      "inputs": [
        {
          "internalType": "address",
          "name": "owner",
          "type": "address"
        }
      ],
      "name": "OwnableInvalidOwner",
      "type": "error"
    },
    {
      "inputs": [
        {
          "internalType": "address",
          "name": "account",
          "type": "address"
        }
      ],
      "name": "OwnableUnauthorizedAccount",
      "type": "error"
    },
    {
      "anonymous": false,
      "inputs": [
        {
          "indexed": true,
          "internalType": "address",
          "name": "wallet",
          "type": "address"
        },
        {
          "indexed": false,
          "internalType": "string",
          "name": "name",
          "type": "string"
        },
        {
          "indexed": false,
          "internalType": "string",
          "name": "category",
          "type": "string"
        },
        {
          "indexed": false,
          "internalType": "uint256",
          "name": "timestamp",
          "type": "uint256"
        }
      ],
      "name": "BuilderRegistered",
      "type": "event"
    },
    {
      "anonymous": false,
      "inputs": [
        {
          "indexed": true,
          "internalType": "address",
          "name": "wallet",
          "type": "address"
        },
        {
          "indexed": false,
          "internalType": "uint256",
          "name": "timestamp",
          "type": "uint256"
        }
      ],
      "name": "BuilderRemoved",
      "type": "event"
    },
    {
      "anonymous": false,
      "inputs": [
        {
          "indexed": true,
          "internalType": "address",
          "name": "wallet",
          "type": "address"
        },
        {
          "indexed": false,
          "internalType": "string",
          "name": "name",
          "type": "string"
        },
        {
          "indexed": false,
          "internalType": "string",
          "name": "url",
          "type": "string"
        },
        {
          "indexed": false,
          "internalType": "string",
          "name": "category",
          "type": "string"
        }
      ],
      "name": "BuilderUpdated",
      "type": "event"
    },
    {
      "anonymous": false,
      "inputs": [
        {
          "indexed": true,
          "internalType": "address",
          "name": "previousOwner",
          "type": "address"
        },
        {
          "indexed": true,
          "internalType": "address",
          "name": "newOwner",
          "type": "address"
        }
      ],
      "name": "OwnershipTransferred",
      "type": "event"
    },
    {
      "inputs": [
        {
          "internalType": "address",
          "name": "",
          "type": "address"
        }
      ],
      "name": "builders",
      "outputs": [
        {
          "internalType": "string",
          "name": "name",
          "type": "string"
        },
        {
          "internalType": "string",
          "name": "url",
          "type": "string"
        },
        {
          "internalType": "string",
          "name": "category",
          "type": "string"
        },
        {
          "internalType": "uint256",
          "name": "registeredAt",
          "type": "uint256"
        },
        {
          "internalType": "bool",
          "name": "active",
          "type": "bool"
        }
      ],
      "stateMutability": "view",
      "type": "function"
    },
    {
      "inputs": [],
      "name": "getActiveBuilders",
      "outputs": [
        {
          "internalType": "address[]",
          "name": "",
          "type": "address[]"
        }
      ],
      "stateMutability": "view",
      "type": "function"
    },
    {
      "inputs": [
        {
          "internalType": "uint256",
          "name": "index",
          "type": "uint256"
        }
      ],
      "name": "getBuilderAt",
      "outputs": [
        {
          "internalType": "address",
          "name": "",
          "type": "address"
        }
      ],
      "stateMutability": "view",
      "type": "function"
    },
    {
      "inputs": [],
      "name": "getBuilderCount",
      "outputs": [
        {
          "internalType": "uint256",
          "name": "",
          "type": "uint256"
        }
      ],
      "stateMutability": "view",
      "type": "function"
    },
    {
      "inputs": [
        {
          "internalType": "address",
          "name": "wallet",
          "type": "address"
        }
      ],
      "name": "getBuilderInfo",
      "outputs": [
        {
          "components": [
            {
              "internalType": "string",
              "name": "name",
              "type": "string"
            },
            {
              "internalType": "string",
              "name": "url",
              "type": "string"
            },
            {
              "internalType": "string",
              "name": "category",
              "type": "string"
            },
            {
              "internalType": "uint256",
              "name": "registeredAt",
              "type": "uint256"
            },
            {
              "internalType": "bool",
              "name": "active",
              "type": "bool"
            }
          ],
          "internalType": "struct BuilderRegistry.BuilderInfo",
          "name": "",
          "type": "tuple"
        }
      ],
      "stateMutability": "view",
      "type": "function"
    },
    {
      "inputs": [
        {
          "internalType": "address",
          "name": "",
          "type": "address"
        }
      ],
      "name": "isBuilder",
      "outputs": [
        {
          "internalType": "bool",
          "name": "",
          "type": "bool"
        }
      ],
      "stateMutability": "view",
      "type": "function"
    },
    {
      "inputs": [],
      "name": "owner",
      "outputs": [
        {
          "internalType": "address",
          "name": "",
          "type": "address"
        }
      ],
      "stateMutability": "view",
      "type": "function"
    },
    {
      "inputs": [
        {
          "internalType": "address",
          "name": "wallet",
          "type": "address"
        },
        {
          "internalType": "string",
          "name": "name",
          "type": "string"
        },
        {
          "internalType": "string",
          "name": "url",
          "type": "string"
        },
        {
          "internalType": "string",
          "name": "category",
          "type": "string"
        }
      ],
      "name": "registerBuilder",
      "outputs": [],
      "stateMutability": "nonpayable",
      "type": "function"
    },
    {
      "inputs": [
        {
          "internalType": "address",
          "name": "wallet",
          "type": "address"
        }
      ],
      "name": "removeBuilder",
      "outputs": [],
      "stateMutability": "nonpayable",
      "type": "function"
    },
    {
      "inputs": [],
      "name": "renounceOwnership",
      "outputs": [],
      "stateMutability": "nonpayable",
      "type": "function"
    },
    {
      "inputs": [
        {
          "internalType": "address",
          "name": "newOwner",
          "type": "address"
        }
      ],
      "name": "transferOwnership",
      "outputs": [],
      "stateMutability": "nonpayable",
      "type": "function"
    },
    {
      "inputs": [
        {
          "internalType": "address",
          "name": "wallet",
          "type": "address"
        },
        {
          "internalType": "string",
          "name": "name",
          "type": "string"
        },
        {
          "internalType": "string",
          "name": "url",
          "type": "string"
        },
        {
          "internalType": "string",
          "name": "category",
          "type": "string"
        }
      ],
      "name": "updateBuilder",
      "outputs": [],
      "stateMutability": "nonpayable",
      "type": "function"
    }
  ],
  "bytecode": "0x60806040523480156200001157600080fd5b5060405162002267380380620022678339818101604052810190620000379190620001f4565b80600073ffffffffffffffffffffffffffffffffffffffff168173ffffffffffffffffffffffffffffffffffffffff1603620000ad5760006040517f1e4fbdf7000000000000000000000000000000000000000000000000000000008152600401620000a4919062000237565b60405180910390fd5b620000be81620000c660201b60201c565b505062000254565b60008060009054906101000a900473ffffffffffffffffffffffffffffffffffffffff169050816000806101000a81548173ffffffffffffffffffffffffffffffffffffffff021916908373ffffffffffffffffffffffffffffffffffffffff1602179055508173ffffffffffffffffffffffffffffffffffffffff168173ffffffffffffffffffffffffffffffffffffffff167f8be0079c531659141344cd1fd0a4f28419497f9722a3daafe3b4186f6b6457e060405160405180910390a35050565b600080fd5b600073ffffffffffffffffffffffffffffffffffffffff82169050919050565b6000620001bc826200018f565b9050919050565b620001ce81620001af565b8114620001da57600080fd5b50565b600081519050620001ee81620001c3565b92915050565b6000602082840312156200020d576200020c6200018a565b5b60006200021d84828501620001dd565b91505092915050565b6200023181620001af565b82525050565b60006020820190506200024e600083018462000226565b92915050565b61200380620002646000396000f3fe608060405234801561001057600080fd5b50600436106100b45760003560e01c8063a0bc2b1211610071578063a0bc2b121461017d578063a597db1f146101ad578063b6b6b475146101cb578063e54a01f9146101fb578063ec96938614610219578063f2fde38b14610235576100b4565b80630de66bc9146100b9578063144ddefc146100e95780633355afb61461011d5780634ab4368c14610139578063715018a6146101555780638da5cb5b1461015f575b600080fd5b6100d360048036038101906100ce91906114f1565b610251565b6040516100e09190611666565b60405180910390f35b61010360048036038101906100fe91906114f1565b610485565b6040516101149594939291906116f0565b60405180910390f35b610137600480360381019061013291906117bd565b610660565b005b610153600480360381019061014e91906117bd565b6108ca565b005b61015d610d02565b005b610167610d16565b6040516101749190611895565b60405180910390f35b610197600480360381019061019291906118dc565b610d3f565b6040516101a49190611895565b60405180910390f35b6101b5610d87565b6040516101c291906119c7565b60405180910390f35b6101e560048036038101906101e091906114f1565b610ff1565b6040516101f291906119e9565b60405180910390f35b610203611011565b6040516102109190611a04565b60405180910390f35b610233600480360381019061022e91906114f1565b61101e565b005b61024f600480360381019061024a91906114f1565b6111b8565b005b610259611458565b600160008373ffffffffffffffffffffffffffffffffffffffff1673ffffffffffffffffffffffffffffffffffffffff1681526020019081526020016000206040518060a00160405290816000820180546102b390611a4e565b80601f01602080910402602001604051908101604052809291908181526020018280546102df90611a4e565b801561032c5780601f106103015761010080835404028352916020019161032c565b820191906000526020600020905b81548152906001019060200180831161030f57829003601f168201915b5050505050815260200160018201805461034590611a4e565b80601f016020809104026020016040519081016040528092919081815260200182805461037190611a4e565b80156103be5780601f10610393576101008083540402835291602001916103be565b820191906000526020600020905b8154815290600101906020018083116103a157829003601f168201915b505050505081526020016002820180546103d790611a4e565b80601f016020809104026020016040519081016040528092919081815260200182805461040390611a4e565b80156104505780601f1061042557610100808354040283529160200191610450565b820191906000526020600020905b81548152906001019060200180831161043357829003601f168201915b50505050508152602001600382015481526020016004820160009054906101000a900460ff1615151515815250509050919050565b60016020528060005260406000206000915090508060000180546104a890611a4e565b80601f01602080910402602001604051908101604052809291908181526020018280546104d490611a4e565b80156105215780601f106104f657610100808354040283529160200191610521565b820191906000526020600020905b81548152906001019060200180831161050457829003601f168201915b50505050509080600101805461053690611a4e565b80601f016020809104026020016040519081016040528092919081815260200182805461056290611a4e565b80156105af5780601f10610584576101008083540402835291602001916105af565b820191906000526020600020905b81548152906001019060200180831161059257829003601f168201915b5050505050908060020180546105c490611a4e565b80601f01602080910402602001604051908101604052809291908181526020018280546105f090611a4e565b801561063d5780601f106106125761010080835404028352916020019161063d565b820191906000526020600020905b81548152906001019060200180831161062057829003601f168201915b5050505050908060030154908060040160009054906101000a900460ff16905085565b61066861123e565b600260008873ffffffffffffffffffffffffffffffffffffffff1673ffffffffffffffffffffffffffffffffffffffff16815260200190815260200160002060009054906101000a900460ff166106f657866040517fbfc6c3370000000000000000000000000000000000000000000000000000000081526004016106ed9190611895565b60405180910390fd5b60008686905003610733576040517f2ef1310500000000000000000000000000000000000000000000000000000000815260040160405180910390fd5b61073d82826112c5565b610773576040517fd67592f600000000000000000000000000000000000000000000000000000000815260040160405180910390fd5b8585600160008a73ffffffffffffffffffffffffffffffffffffffff1673ffffffffffffffffffffffffffffffffffffffff16815260200190815260200160002060000191826107c4929190611c65565b508383600160008a73ffffffffffffffffffffffffffffffffffffffff1673ffffffffffffffffffffffffffffffffffffffff1681526020019081526020016000206001019182610816929190611c65565b508181600160008a73ffffffffffffffffffffffffffffffffffffffff1673ffffffffffffffffffffffffffffffffffffffff1681526020019081526020016000206002019182610868929190611c65565b508673ffffffffffffffffffffffffffffffffffffffff167f34fcf73d7bd069e8e88676f52bfd1f178b3ea7da9918e000219083957d16644b8787878787876040516108b996959493929190611d71565b60405180910390a250505050505050565b6108d261123e565b600073ffffffffffffffffffffffffffffffffffffffff168773ffffffffffffffffffffffffffffffffffffffff1603610938576040517fe6c4247b00000000000000000000000000000000000000000000000000000000815260040160405180910390fd5b600260008873ffffffffffffffffffffffffffffffffffffffff1673ffffffffffffffffffffffffffffffffffffffff16815260200190815260200160002060009054906101000a900460ff16156109c757866040517f45ed80e90000000000000000000000000000000000000000000000000000000081526004016109be9190611895565b60405180910390fd5b60008686905003610a04576040517f2ef1310500000000000000000000000000000000000000000000000000000000815260040160405180910390fd5b610a0e82826112c5565b610a44576040517fd67592f600000000000000000000000000000000000000000000000000000000815260040160405180910390fd5b6001600260008973ffffffffffffffffffffffffffffffffffffffff1673ffffffffffffffffffffffffffffffffffffffff16815260200190815260200160002060006101000a81548160ff0219169083151502179055506040518060a0016040528087878080601f016020809104026020016040519081016040528093929190818152602001838380828437600081840152601f19601f82011690508083019250505050505050815260200185858080601f016020809104026020016040519081016040528093929190818152602001838380828437600081840152601f19601f82011690508083019250505050505050815260200183838080601f016020809104026020016040519081016040528093929190818152602001838380828437600081840152601f19601f82011690508083019250505050505050815260200142815260200160011515815250600160008973ffffffffffffffffffffffffffffffffffffffff1673ffffffffffffffffffffffffffffffffffffffff1681526020019081526020016000206000820151816000019081610be69190611dc3565b506020820151816001019081610bfc9190611dc3565b506040820151816002019081610c129190611dc3565b506060820151816003015560808201518160040160006101000a81548160ff0219169083151502179055509050506003879080600181540180825580915050600190039060005260206000200160009091909190916101000a81548173ffffffffffffffffffffffffffffffffffffffff021916908373ffffffffffffffffffffffffffffffffffffffff1602179055508673ffffffffffffffffffffffffffffffffffffffff167f4a79786e540df7f780c04c7d476a287d863daf892060fadbb5ae1df7056124ff8787858542604051610cf1959493929190611e95565b60405180910390a250505050505050565b610d0a61123e565b610d14600061138c565b565b60008060009054906101000a900473ffffffffffffffffffffffffffffffffffffffff16905090565b600060038281548110610d5557610d54611ede565b5b9060005260206000200160009054906101000a900473ffffffffffffffffffffffffffffffffffffffff169050919050565b60606000805b600380549050811015610e4c576002600060038381548110610db257610db1611ede565b5b9060005260206000200160009054906101000a900473ffffffffffffffffffffffffffffffffffffffff1673ffffffffffffffffffffffffffffffffffffffff1673ffffffffffffffffffffffffffffffffffffffff16815260200190815260200160002060009054906101000a900460ff1615610e39578180610e3590611f3c565b9250505b8080610e4490611f3c565b915050610d8d565b5060008167ffffffffffffffff811115610e6957610e68611a8a565b5b604051908082528060200260200182016040528015610e975781602001602082028036833780820191505090505b5090506000805b600380549050811015610fe7576002600060038381548110610ec357610ec2611ede565b5b9060005260206000200160009054906101000a900473ffffffffffffffffffffffffffffffffffffffff1673ffffffffffffffffffffffffffffffffffffffff1673ffffffffffffffffffffffffffffffffffffffff16815260200190815260200160002060009054906101000a900460ff1615610fd45760038181548110610f4f57610f4e611ede565b5b9060005260206000200160009054906101000a900473ffffffffffffffffffffffffffffffffffffffff16838380610f8690611f3c565b945081518110610f9957610f98611ede565b5b602002602001019073ffffffffffffffffffffffffffffffffffffffff16908173ffffffffffffffffffffffffffffffffffffffff16815250505b8080610fdf90611f3c565b915050610e9e565b5081935050505090565b60026020528060005260406000206000915054906101000a900460ff1681565b6000600380549050905090565b61102661123e565b600260008273ffffffffffffffffffffffffffffffffffffffff1673ffffffffffffffffffffffffffffffffffffffff16815260200190815260200160002060009054906101000a900460ff166110b457806040517fbfc6c3370000000000000000000000000000000000000000000000000000000081526004016110ab9190611895565b60405180910390fd5b6000600260008373ffffffffffffffffffffffffffffffffffffffff1673ffffffffffffffffffffffffffffffffffffffff16815260200190815260200160002060006101000a81548160ff0219169083151502179055506000600160008373ffffffffffffffffffffffffffffffffffffffff1673ffffffffffffffffffffffffffffffffffffffff16815260200190815260200160002060040160006101000a81548160ff0219169083151502179055508073ffffffffffffffffffffffffffffffffffffffff167f1bfa8bd9f09f31b32c53aaf637db0c905167dfa2664e31f71dbff8292c78bf42426040516111ad9190611a04565b60405180910390a250565b6111c061123e565b600073ffffffffffffffffffffffffffffffffffffffff168173ffffffffffffffffffffffffffffffffffffffff16036112325760006040517f1e4fbdf70000000000000000000000000000000000000000000000000000000081526004016112299190611895565b60405180910390fd5b61123b8161138c565b50565b611246611450565b73ffffffffffffffffffffffffffffffffffffffff16611264610d16565b73ffffffffffffffffffffffffffffffffffffffff16146112c357611287611450565b6040517f118cdaa70000000000000000000000000000000000000000000000000000000081526004016112ba9190611895565b60405180910390fd5b565b60008083836040516112d8929190611fb4565b604051809103902090507f0d1f301a4d55e328cfe2f78743e489a98cedaf66d744b3ab1bb877ff82930b0b81148061132f57507f884719f00577ca0b3b65881eae0487a07b6877053a96fd8ede8ce48dec6064e681145b8061135957507f8b5db23b6567570f199b4878f74df58b003487b1bdc60414cf58dc3456f153e281145b8061138357507f8510acf858a6208b10ca6a42b601609d333cd69cb8f62bc06998b9ca193225be81145b91505092915050565b60008060009054906101000a900473ffffffffffffffffffffffffffffffffffffffff169050816000806101000a81548173ffffffffffffffffffffffffffffffffffffffff021916908373ffffffffffffffffffffffffffffffffffffffff1602179055508173ffffffffffffffffffffffffffffffffffffffff168173ffffffffffffffffffffffffffffffffffffffff167f8be0079c531659141344cd1fd0a4f28419497f9722a3daafe3b4186f6b6457e060405160405180910390a35050565b600033905090565b6040518060a00160405280606081526020016060815260200160608152602001600081526020016000151581525090565b600080fd5b600080fd5b600073ffffffffffffffffffffffffffffffffffffffff82169050919050565b60006114be82611493565b9050919050565b6114ce816114b3565b81146114d957600080fd5b50565b6000813590506114eb816114c5565b92915050565b60006020828403121561150757611506611489565b5b6000611515848285016114dc565b91505092915050565b600081519050919050565b600082825260208201905092915050565b60005b8381101561155857808201518184015260208101905061153d565b60008484015250505050565b6000601f19601f8301169050919050565b60006115808261151e565b61158a8185611529565b935061159a81856020860161153a565b6115a381611564565b840191505092915050565b6000819050919050565b6115c1816115ae565b82525050565b60008115159050919050565b6115dc816115c7565b82525050565b600060a08301600083015184820360008601526115ff8282611575565b915050602083015184820360208601526116198282611575565b915050604083015184820360408601526116338282611575565b915050606083015161164860608601826115b8565b50608083015161165b60808601826115d3565b508091505092915050565b6000602082019050818103600083015261168081846115e2565b905092915050565b600082825260208201905092915050565b60006116a48261151e565b6116ae8185611688565b93506116be81856020860161153a565b6116c781611564565b840191505092915050565b6116db816115ae565b82525050565b6116ea816115c7565b82525050565b600060a082019050818103600083015261170a8188611699565b9050818103602083015261171e8187611699565b905081810360408301526117328186611699565b905061174160608301856116d2565b61174e60808301846116e1565b9695505050505050565b600080fd5b600080fd5b600080fd5b60008083601f84011261177d5761177c611758565b5b8235905067ffffffffffffffff81111561179a5761179961175d565b5b6020830191508360018202830111156117b6576117b5611762565b5b9250929050565b60008060008060008060006080888a0312156117dc576117db611489565b5b60006117ea8a828b016114dc565b975050602088013567ffffffffffffffff81111561180b5761180a61148e565b5b6118178a828b01611767565b9650965050604088013567ffffffffffffffff81111561183a5761183961148e565b5b6118468a828b01611767565b9450945050606088013567ffffffffffffffff8111156118695761186861148e565b5b6118758a828b01611767565b925092505092959891949750929550565b61188f816114b3565b82525050565b60006020820190506118aa6000830184611886565b92915050565b6118b9816115ae565b81146118c457600080fd5b50565b6000813590506118d6816118b0565b92915050565b6000602082840312156118f2576118f1611489565b5b6000611900848285016118c7565b91505092915050565b600081519050919050565b600082825260208201905092915050565b6000819050602082019050919050565b61193e816114b3565b82525050565b60006119508383611935565b60208301905092915050565b6000602082019050919050565b600061197482611909565b61197e8185611914565b935061198983611925565b8060005b838110156119ba5781516119a18882611944565b97506119ac8361195c565b92505060018101905061198d565b5085935050505092915050565b600060208201905081810360008301526119e18184611969565b905092915050565b60006020820190506119fe60008301846116e1565b92915050565b6000602082019050611a1960008301846116d2565b92915050565b7f4e487b7100000000000000000000000000000000000000000000000000000000600052602260045260246000fd5b60006002820490506001821680611a6657607f821691505b602082108103611a7957611a78611a1f565b5b50919050565b600082905092915050565b7f4e487b7100000000000000000000000000000000000000000000000000000000600052604160045260246000fd5b60008190508160005260206000209050919050565b60006020601f8301049050919050565b600082821b905092915050565b600060088302611b1b7fffffffffffffffffffffffffffffffffffffffffffffffffffffffffffffffff82611ade565b611b258683611ade565b95508019841693508086168417925050509392505050565b6000819050919050565b6000611b62611b5d611b58846115ae565b611b3d565b6115ae565b9050919050565b6000819050919050565b611b7c83611b47565b611b90611b8882611b69565b848454611aeb565b825550505050565b600090565b611ba5611b98565b611bb0818484611b73565b505050565b5b81811015611bd457611bc9600082611b9d565b600181019050611bb6565b5050565b601f821115611c1957611bea81611ab9565b611bf384611ace565b81016020851015611c02578190505b611c16611c0e85611ace565b830182611bb5565b50505b505050565b600082821c905092915050565b6000611c3c60001984600802611c1e565b1980831691505092915050565b6000611c558383611c2b565b9150826002028217905092915050565b611c6f8383611a7f565b67ffffffffffffffff811115611c8857611c87611a8a565b5b611c928254611a4e565b611c9d828285611bd8565b6000601f831160018114611ccc5760008415611cba578287013590505b611cc48582611c49565b865550611d2c565b601f198416611cda86611ab9565b60005b82811015611d0257848901358255600182019150602085019450602081019050611cdd565b86831015611d1f5784890135611d1b601f891682611c2b565b8355505b6001600288020188555050505b50505050505050565b82818337600083830152505050565b6000611d508385611688565b9350611d5d838584611d35565b611d6683611564565b840190509392505050565b60006060820190508181036000830152611d8c81888a611d44565b90508181036020830152611da1818688611d44565b90508181036040830152611db6818486611d44565b9050979650505050505050565b611dcc8261151e565b67ffffffffffffffff811115611de557611de4611a8a565b5b611def8254611a4e565b611dfa828285611bd8565b600060209050601f831160018114611e2d5760008415611e1b578287015190505b611e258582611c49565b865550611e8d565b601f198416611e3b86611ab9565b60005b82811015611e6357848901518255600182019150602085019450602081019050611e3e565b86831015611e805784890151611e7c601f891682611c2b565b8355505b6001600288020188555050505b505050505050565b60006060820190508181036000830152611eb0818789611d44565b90508181036020830152611ec5818587611d44565b9050611ed460408301846116d2565b9695505050505050565b7f4e487b7100000000000000000000000000000000000000000000000000000000600052603260045260246000fd5b7f4e487b7100000000000000000000000000000000000000000000000000000000600052601160045260246000fd5b6000611f47826115ae565b91507fffffffffffffffffffffffffffffffffffffffffffffffffffffffffffffffff8203611f7957611f78611f0d565b5b600182019050919050565b600081905092915050565b6000611f9b8385611f84565b9350611fa8838584611d35565b82840190509392505050565b6000611fc1828486611f8f565b9150819050939250505056fea2646970667358221220de2e2436dd397151c1626c0879e8f0e15947edb3ebe30ae9c0c555fcc8d58d0464736f6c63430008140033",
  "linkReferences": {},
  "deployedLinkReferences": {}
}