{
  "_format": "hh-sol-artifact-1",
  "contractName": "BuybackController",
  "sourceName": "contracts/buyback/BuybackController.sol",
  "abi": [
    {
      "inputs": [
        {
          "internalType": "address",
          "name": "_token",
          "type": "address"
        },
        {
          "internalType": "address",
          "name": "_burnReserve",
          "type": "address"
        },
        {
          "internalType": "address",
          "name": "_router",
          "type": "address"
        },
        {
          "internalType": "address",
          "name": "_lpReceiver",
          "type": "address"
        },
        {
          "internalType": "address",
          "name": "_guardian",
          "type": "address"
        },
        {
          "internalType": "address",
          "name": "_governance",
          "type": "address"
        }
      ],
      "stateMutability": "nonpayable",
      "type": "constructor"
    },
    {
      "anonymous": false,
      "inputs": [
        {
          "indexed": false,
          "internalType": "uint256",
          "name": "ethSpent",
          "type": "uint256"
        },
        {
          "indexed": false,
          "internalType": "uint256",
          "name": "ifrBought",
          "type": "uint256"
        },
        {
          "indexed": false,
          "internalType": "uint256",
          "name": "ifrToBurn",
          "type": "uint256"
        }
      ],
      "name": "BuybackExecuted",
      "type": "event"
    },
    {
      "anonymous": false,
      "inputs": [
        {
          "indexed": false,
          "internalType": "uint256",
          "name": "newCooldown",
          "type": "uint256"
        }
      ],
      "name": "CooldownUpdated",
      "type": "event"
    },
    {
      "anonymous": false,
      "inputs": [
        {
          "indexed": false,
          "internalType": "uint256",
          "name": "ethUsed",
          "type": "uint256"
        },
        {
          "indexed": false,
          "internalType": "uint256",
          "name": "ifrUsed",
          "type": "uint256"
        },
        {
          "indexed": false,
          "internalType": "uint256",
          "name": "liquidity",
          "type": "uint256"
        }
      ],
      "name": "LiquidityAdded",
      "type": "event"
    },
    {
      "anonymous": false,
      "inputs": [
        {
          "indexed": false,
          "internalType": "uint256",
          "name": "ethRedirected",
          "type": "uint256"
        }
      ],
      "name": "LiquidityFallback",
      "type": "event"
    },
    {
      "anonymous": false,
      "inputs": [
        {
          "indexed": false,
          "internalType": "uint256",
          "name": "newMin",
          "type": "uint256"
        }
      ],
      "name": "MinTriggerUpdated",
      "type": "event"
    },
    {
      "anonymous": false,
      "inputs": [
        {
          "indexed": true,
          "internalType": "address",
          "name": "previousOwner",
          "type": "address"
        },
        {
          "indexed": true,
          "internalType": "address",
          "name": "newOwner",
          "type": "address"
        }
      ],
      "name": "OwnershipTransferred",
      "type": "event"
    },
    {
      "anonymous": false,
      "inputs": [
        {
          "indexed": true,
          "internalType": "address",
          "name": "account",
          "type": "address"
        }
      ],
      "name": "Paused",
      "type": "event"
    },
    {
      "anonymous": false,
      "inputs": [
        {
          "indexed": false,
          "internalType": "uint256",
          "name": "newSlippageBps",
          "type": "uint256"
        }
      ],
      "name": "SlippageUpdated",
      "type": "event"
    },
    {
      "anonymous": false,
      "inputs": [
        {
          "indexed": true,
          "internalType": "address",
          "name": "account",
          "type": "address"
        }
      ],
      "name": "Unpaused",
      "type": "event"
    },
    {
      "inputs": [],
      "name": "BURN_SHARE_BPS",
      "outputs": [
        {
          "internalType": "uint256",
          "name": "",
          "type": "uint256"
        }
      ],
      "stateMutability": "view",
      "type": "function"
    },
    {
      "inputs": [],
      "name": "LP_SHARE_BPS",
      "outputs": [
        {
          "internalType": "uint256",
          "name": "",
          "type": "uint256"
        }
      ],
      "stateMutability": "view",
      "type": "function"
    },
    {
      "inputs": [],
      "name": "burnReserve",
      "outputs": [
        {
          "internalType": "address",
          "name": "",
          "type": "address"
        }
      ],
      "stateMutability": "view",
      "type": "function"
    },
    {
      "inputs": [],
      "name": "canExecute",
      "outputs": [
        {
          "internalType": "bool",
          "name": "",
          "type": "bool"
        }
      ],
      "stateMutability": "view",
      "type": "function"
    },
    {
      "inputs": [],
      "name": "cooldown",
      "outputs": [
        {
          "internalType": "uint256",
          "name": "",
          "type": "uint256"
        }
      ],
      "stateMutability": "view",
      "type": "function"
    },
    {
      "inputs": [],
      "name": "execute",
      "outputs": [],
      "stateMutability": "nonpayable",
      "type": "function"
    },
    {
      "inputs": [],
      "name": "executionCount",
      "outputs": [
        {
          "internalType": "uint256",
          "name": "",
          "type": "uint256"
        }
      ],
      "stateMutability": "view",
      "type": "function"
    },
    {
      "inputs": [],
      "name": "guardian",
      "outputs": [
        {
          "internalType": "address",
          "name": "",
          "type": "address"
        }
      ],
      "stateMutability": "view",
      "type": "function"
    },
    {
      "inputs": [],
      "name": "lastExecution",
      "outputs": [
        {
          "internalType": "uint256",
          "name": "",
          "type": "uint256"
        }
      ],
      "stateMutability": "view",
      "type": "function"
    },
    {
      "inputs": [],
      "name": "lpReceiver",
      "outputs": [
        {
          "internalType": "address",
          "name": "",
          "type": "address"
        }
      ],
      "stateMutability": "view",
      "type": "function"
    },
    {
      "inputs": [],
      "name": "minTriggerAmount",
      "outputs": [
        {
          "internalType": "uint256",
          "name": "",
          "type": "uint256"
        }
      ],
      "stateMutability": "view",
      "type": "function"
    },
    {
      "inputs": [],
      "name": "owner",
      "outputs": [
        {
          "internalType": "address",
          "name": "",
          "type": "address"
        }
      ],
      "stateMutability": "view",
      "type": "function"
    },
    {
      "inputs": [],
      "name": "pause",
      "outputs": [],
      "stateMutability": "nonpayable",
      "type": "function"
    },
    {
      "inputs": [],
      "name": "paused",
      "outputs": [
        {
          "internalType": "bool",
          "name": "",
          "type": "bool"
        }
      ],
      "stateMutability": "view",
      "type": "function"
    },
    {
      "inputs": [],
      "name": "pendingETH",
      "outputs": [
        {
          "internalType": "uint256",
          "name": "",
          "type": "uint256"
        }
      ],
      "stateMutability": "view",
      "type": "function"
    },
    {
      "inputs": [],
      "name": "router",
      "outputs": [
        {
          "internalType": "contract IRouter",
          "name": "",
          "type": "address"
        }
      ],
      "stateMutability": "view",
      "type": "function"
    },
    {
      "inputs": [
        {
          "internalType": "uint256",
          "name": "_cooldown",
          "type": "uint256"
        }
      ],
      "name": "setCooldown",
      "outputs": [],
      "stateMutability": "nonpayable",
      "type": "function"
    },
    {
      "inputs": [
        {
          "internalType": "address",
          "name": "_lpReceiver",
          "type": "address"
        }
      ],
      "name": "setLpReceiver",
      "outputs": [],
      "stateMutability": "nonpayable",
      "type": "function"
    },
    {
      "inputs": [
        {
          "internalType": "uint256",
          "name": "_min",
          "type": "uint256"
        }
      ],
      "name": "setMinTrigger",
      "outputs": [],
      "stateMutability": "nonpayable",
      "type": "function"
    },
    {
      "inputs": [
        {
          "internalType": "address",
          "name": "_router",
          "type": "address"
        }
      ],
      "name": "setRouter",
      "outputs": [],
      "stateMutability": "nonpayable",
      "type": "function"
    },
    {
      "inputs": [
        {
          "internalType": "uint256",
          "name": "_bps",
          "type": "uint256"
        }
      ],
      "name": "setSlippage",
      "outputs": [],
      "stateMutability": "nonpayable",
      "type": "function"
    },
    {
      "inputs": [],
      "name": "slippageBps",
      "outputs": [
        {
          "internalType": "uint256",
          "name": "",
          "type": "uint256"
        }
      ],
      "stateMutability": "view",
      "type": "function"
    },
    {
      "inputs": [],
      "name": "stats",
      "outputs": [
        {
          "internalType": "uint256",
          "name": "_totalETHProcessed",
          "type": "uint256"
        },
        {
          "internalType": "uint256",
          "name": "_totalIFRBurned",
          "type": "uint256"
        },
        {
          "internalType": "uint256",
          "name": "_totalLiquidityAdded",
          "type": "uint256"
        },
        {
          "internalType": "uint256",
          "name": "_executionCount",
          "type": "uint256"
        }
      ],
      "stateMutability": "view",
      "type": "function"
    },
    {
      "inputs": [],
      "name": "token",
      "outputs": [
        {
          "internalType": "contract IERC20",
          "name": "",
          "type": "address"
        }
      ],
      "stateMutability": "view",
      "type": "function"
    },
    {
      "inputs": [],
      "name": "totalETHProcessed",
      "outputs": [
        {
          "internalType": "uint256",
          "name": "",
          "type": "uint256"
        }
      ],
      "stateMutability": "view",
      "type": "function"
    },
    {
      "inputs": [],
      "name": "totalIFRBurned",
      "outputs": [
        {
          "internalType": "uint256",
          "name": "",
          "type": "uint256"
        }
      ],
      "stateMutability": "view",
      "type": "function"
    },
    {
      "inputs": [],
      "name": "totalLiquidityAdded",
      "outputs": [
        {
          "internalType": "uint256",
          "name": "",
          "type": "uint256"
        }
      ],
      "stateMutability": "view",
      "type": "function"
    },
    {
      "inputs": [
        {
          "internalType": "address",
          "name": "newOwner",
          "type": "address"
        }
      ],
      "name": "transferOwnership",
      "outputs": [],
      "stateMutability": "nonpayable",
      "type": "function"
    },
    {
      "inputs": [],
      "name": "unpause",
      "outputs": [],
      "stateMutability": "nonpayable",
      "type": "function"
    },
    {
      "inputs": [
        {
          "internalType": "address",
          "name": "to",
          "type": "address"
        },
        {
          "internalType": "uint256",
          "name": "amount",
          "type": "uint256"
        }
      ],
      "name": "withdrawETH",
      "outputs": [],
      "stateMutability": "nonpayable",
      "type": "function"
    },
    {
      "inputs": [
        {
          "internalType": "address",
          "name": "to",
          "type": "address"
        },
        {
          "internalType": "uint256",
          "name": "amount",
          "type": "uint256"
        }
      ],
      "name": "withdrawIFR",
      "outputs": [],
      "stateMutability": "nonpayable",
      "type": "function"
    },
    {
      "stateMutability": "payable",
      "type": "receive"
    }
  ],
  "bytecode": "0x60e060405262015180600355662386f26fc100006005556101f46006553480156200002957600080fd5b50604051620036293803806200362983398181016040528101906200004f9190620004cf565b600073ffffffffffffffffffffffffffffffffffffffff168673ffffffffffffffffffffffffffffffffffffffff1603620000c1576040517f08c379a0000000000000000000000000000000000000000000000000000000008152600401620000b890620005cc565b60405180910390fd5b600073ffffffffffffffffffffffffffffffffffffffff168573ffffffffffffffffffffffffffffffffffffffff160362000133576040517f08c379a00000000000000000000000000000000000000000000000000000000081526004016200012a906200063e565b60405180910390fd5b600073ffffffffffffffffffffffffffffffffffffffff168473ffffffffffffffffffffffffffffffffffffffff1603620001a5576040517f08c379a00000000000000000000000000000000000000000000000000000000081526004016200019c90620006b0565b60405180910390fd5b600073ffffffffffffffffffffffffffffffffffffffff168373ffffffffffffffffffffffffffffffffffffffff160362000217576040517f08c379a00000000000000000000000000000000000000000000000000000000081526004016200020e9062000722565b60405180910390fd5b600073ffffffffffffffffffffffffffffffffffffffff168273ffffffffffffffffffffffffffffffffffffffff160362000289576040517f08c379a0000000000000000000000000000000000000000000000000000000008152600401620002809062000794565b60405180910390fd5b600073ffffffffffffffffffffffffffffffffffffffff168173ffffffffffffffffffffffffffffffffffffffff1603620002fb576040517f08c379a0000000000000000000000000000000000000000000000000000000008152600401620002f29062000806565b60405180910390fd5b806000806101000a81548173ffffffffffffffffffffffffffffffffffffffff021916908373ffffffffffffffffffffffffffffffffffffffff1602179055508573ffffffffffffffffffffffffffffffffffffffff1660a08173ffffffffffffffffffffffffffffffffffffffff16815250508473ffffffffffffffffffffffffffffffffffffffff1660c08173ffffffffffffffffffffffffffffffffffffffff168152505083600160006101000a81548173ffffffffffffffffffffffffffffffffffffffff021916908373ffffffffffffffffffffffffffffffffffffffff16021790555082600260006101000a81548173ffffffffffffffffffffffffffffffffffffffff021916908373ffffffffffffffffffffffffffffffffffffffff1602179055508173ffffffffffffffffffffffffffffffffffffffff1660808173ffffffffffffffffffffffffffffffffffffffff168152505050505050505062000828565b600080fd5b600073ffffffffffffffffffffffffffffffffffffffff82169050919050565b600062000497826200046a565b9050919050565b620004a9816200048a565b8114620004b557600080fd5b50565b600081519050620004c9816200049e565b92915050565b60008060008060008060c08789031215620004ef57620004ee62000465565b5b6000620004ff89828a01620004b8565b96505060206200051289828a01620004b8565b95505060406200052589828a01620004b8565b94505060606200053889828a01620004b8565b93505060806200054b89828a01620004b8565b92505060a06200055e89828a01620004b8565b9150509295509295509295565b600082825260208201905092915050565b7f746f6b656e3d3000000000000000000000000000000000000000000000000000600082015250565b6000620005b46007836200056b565b9150620005c1826200057c565b602082019050919050565b60006020820190508181036000830152620005e781620005a5565b9050919050565b7f6275726e526573657276653d3000000000000000000000000000000000000000600082015250565b600062000626600d836200056b565b91506200063382620005ee565b602082019050919050565b60006020820190508181036000830152620006598162000617565b9050919050565b7f726f757465723d30000000000000000000000000000000000000000000000000600082015250565b6000620006986008836200056b565b9150620006a58262000660565b602082019050919050565b60006020820190508181036000830152620006cb8162000689565b9050919050565b7f6c7052656365697665723d300000000000000000000000000000000000000000600082015250565b60006200070a600c836200056b565b91506200071782620006d2565b602082019050919050565b600060208201905081810360008301526200073d81620006fb565b9050919050565b7f677561726469616e3d3000000000000000000000000000000000000000000000600082015250565b60006200077c600a836200056b565b9150620007898262000744565b602082019050919050565b60006020820190508181036000830152620007af816200076d565b9050919050565b7f676f7665726e616e63653d300000000000000000000000000000000000000000600082015250565b6000620007ee600c836200056b565b9150620007fb82620007b6565b602082019050919050565b600060208201905081810360008301526200082181620007df565b9050919050565b60805160a05160c051612d9962000890600039600081816111ee01526119740152600081816107db0152818161167a015281816117d401528181611ab701528181611ba10152611ca10152600081816108aa0152818161099e0152610e710152612d996000f3fe6080604052600436106101dc5760003560e01c80638da5cb5b11610102578063c0d7865511610095578063f27074fe11610064578063f27074fe1461062a578063f2fde38b14610655578063f887ea401461067e578063fc0c546a146106a9576101e3565b8063c0d786551461057f578063d80528ae146105a8578063e328b45a146105d6578063f0fa55a914610601576101e3565b8063ad8f3467116100d1578063ad8f3467146104d5578063b7fc3e51146104fe578063bd8e6f3714610529578063bf16257a14610554576101e3565b80638da5cb5b1461042b57806399e0ae4314610456578063a17ecef314610481578063a3b855ce146104ac576101e3565b80634782f7791161017a578063614619541161014957806361461954146103a7578063787a08a6146103be57806378b90337146103e95780638456cb5914610414576101e3565b80634782f779146102ff5780634fc3f41a14610328578063578c71d9146103515780635c975abb1461037c576101e3565b8063362a721d116101b6578063362a721d146102675780633f4ba83a1461029257806343b63b9d146102a9578063452a9320146102d4576101e3565b80630645dc86146101e85780631879a10f146102135780631f0c57fc1461023c576101e3565b366101e357005b600080fd5b3480156101f457600080fd5b506101fd6106d4565b60405161020a9190611e04565b60405180910390f35b34801561021f57600080fd5b5061023a60048036038101906102359190611ebd565b6106dc565b005b34801561024857600080fd5b5061025161087c565b60405161025e9190611f0c565b60405180910390f35b34801561027357600080fd5b5061027c6108a2565b6040516102899190611e04565b60405180910390f35b34801561029e57600080fd5b506102a76108a8565b005b3480156102b557600080fd5b506102be610996565b6040516102cb9190611e04565b60405180910390f35b3480156102e057600080fd5b506102e961099c565b6040516102f69190611f0c565b60405180910390f35b34801561030b57600080fd5b5061032660048036038101906103219190611ebd565b6109c0565b005b34801561033457600080fd5b5061034f600480360381019061034a9190611f27565b610b4b565b005b34801561035d57600080fd5b50610366610ca5565b6040516103739190611e04565b60405180910390f35b34801561038857600080fd5b50610391610cab565b60405161039e9190611f6f565b60405180910390f35b3480156103b357600080fd5b506103bc610cbe565b005b3480156103ca57600080fd5b506103d3610e28565b6040516103e09190611e04565b60405180910390f35b3480156103f557600080fd5b506103fe610e2e565b60405161040b9190611f6f565b60405180910390f35b34801561042057600080fd5b50610429610e6f565b005b34801561043757600080fd5b50610440610f5d565b60405161044d9190611f0c565b60405180910390f35b34801561046257600080fd5b5061046b610f81565b6040516104789190611e04565b60405180910390f35b34801561048d57600080fd5b50610496610f87565b6040516104a39190611e04565b60405180910390f35b3480156104b857600080fd5b506104d360048036038101906104ce9190611f27565b610f8d565b005b3480156104e157600080fd5b506104fc60048036038101906104f79190611f8a565b61109f565b005b34801561050a57600080fd5b506105136111e0565b6040516105209190611e04565b60405180910390f35b34801561053557600080fd5b5061053e6111e6565b60405161054b9190611e04565b60405180910390f35b34801561056057600080fd5b506105696111ec565b6040516105769190611f0c565b60405180910390f35b34801561058b57600080fd5b506105a660048036038101906105a19190611f8a565b611210565b005b3480156105b457600080fd5b506105bd611351565b6040516105cd9493929190611fb7565b60405180910390f35b3480156105e257600080fd5b506105eb611371565b6040516105f89190611e04565b60405180910390f35b34801561060d57600080fd5b5061062860048036038101906106239190611f27565b611377565b005b34801561063657600080fd5b5061063f61148b565b60405161064c9190611e04565b60405180910390f35b34801561066157600080fd5b5061067c60048036038101906106779190611f8a565b611491565b005b34801561068a57600080fd5b50610693611652565b6040516106a0919061205b565b60405180910390f35b3480156106b557600080fd5b506106be611678565b6040516106cb9190612097565b60405180910390f35b600047905090565b60008054906101000a900473ffffffffffffffffffffffffffffffffffffffff1673ffffffffffffffffffffffffffffffffffffffff163373ffffffffffffffffffffffffffffffffffffffff161461076a576040517f08c379a00000000000000000000000000000000000000000000000000000000081526004016107619061210f565b60405180910390fd5b600073ffffffffffffffffffffffffffffffffffffffff168273ffffffffffffffffffffffffffffffffffffffff16036107d9576040517f08c379a00000000000000000000000000000000000000000000000000000000081526004016107d09061217b565b60405180910390fd5b7f000000000000000000000000000000000000000000000000000000000000000073ffffffffffffffffffffffffffffffffffffffff1663a9059cbb83836040518363ffffffff1660e01b815260040161083492919061219b565b6020604051808303816000875af1158015610853573d6000803e3d6000fd5b505050506040513d601f19601f8201168201806040525081019061087791906121f0565b505050565b600260009054906101000a900473ffffffffffffffffffffffffffffffffffffffff1681565b60095481565b7f000000000000000000000000000000000000000000000000000000000000000073ffffffffffffffffffffffffffffffffffffffff163373ffffffffffffffffffffffffffffffffffffffff1614610936576040517f08c379a000000000000000000000000000000000000000000000000000000000815260040161092d90612269565b60405180910390fd5b6000600760006101000a81548160ff0219169083151502179055503373ffffffffffffffffffffffffffffffffffffffff167f5db9ee0a495bf2e6ff9c91a7834c1ba4fdd244a5e8aa4e537bd38aeae4b073aa60405160405180910390a2565b600a5481565b7f000000000000000000000000000000000000000000000000000000000000000081565b60008054906101000a900473ffffffffffffffffffffffffffffffffffffffff1673ffffffffffffffffffffffffffffffffffffffff163373ffffffffffffffffffffffffffffffffffffffff1614610a4e576040517f08c379a0000000000000000000000000000000000000000000000000000000008152600401610a459061210f565b60405180910390fd5b600073ffffffffffffffffffffffffffffffffffffffff168273ffffffffffffffffffffffffffffffffffffffff1603610abd576040517f08c379a0000000000000000000000000000000000000000000000000000000008152600401610ab49061217b565b60405180910390fd5b47811115610b00576040517f08c379a0000000000000000000000000000000000000000000000000000000008152600401610af7906122d5565b60405180910390fd5b8173ffffffffffffffffffffffffffffffffffffffff166108fc829081150290604051600060405180830381858888f19350505050158015610b46573d6000803e3d6000fd5b505050565b60008054906101000a900473ffffffffffffffffffffffffffffffffffffffff1673ffffffffffffffffffffffffffffffffffffffff163373ffffffffffffffffffffffffffffffffffffffff1614610bd9576040517f08c379a0000000000000000000000000000000000000000000000000000000008152600401610bd09061210f565b60405180910390fd5b610e10811015610c1e576040517f08c379a0000000000000000000000000000000000000000000000000000000008152600401610c1590612341565b60405180910390fd5b62093a80811115610c64576040517f08c379a0000000000000000000000000000000000000000000000000000000008152600401610c5b906123ad565b60405180910390fd5b806003819055507f583d8b24c5439ab7d810e51e37e8db41ba66f1168fd7b752ceae0c7681c5272c81604051610c9a9190611e04565b60405180910390a150565b60065481565b600760009054906101000a900460ff1681565b600760009054906101000a900460ff1615610d0e576040517f08c379a0000000000000000000000000000000000000000000000000000000008152600401610d0590612419565b60405180910390fd5b600354600454610d1e9190612468565b421015610d60576040517f08c379a0000000000000000000000000000000000000000000000000000000008152600401610d57906124e8565b60405180910390fd5b600554471015610da5576040517f08c379a0000000000000000000000000000000000000000000000000000000008152600401610d9c90612554565b60405180910390fd5b42600481905550600b6000815480929190610dbf90612574565b919050555060004790508060086000828254610ddb9190612468565b92505081905550600061271061138883610df591906125bc565b610dff919061262d565b905060008183610e0f919061265e565b9050610e1a8261169c565b610e2381611aaa565b505050565b60035481565b6000600760009054906101000a900460ff16158015610e5c5750600354600454610e589190612468565b4210155b8015610e6a57506005544710155b905090565b7f000000000000000000000000000000000000000000000000000000000000000073ffffffffffffffffffffffffffffffffffffffff163373ffffffffffffffffffffffffffffffffffffffff1614610efd576040517f08c379a0000000000000000000000000000000000000000000000000000000008152600401610ef490612269565b60405180910390fd5b6001600760006101000a81548160ff0219169083151502179055503373ffffffffffffffffffffffffffffffffffffffff167f62e78cea01bee320cd4e420270b5ea74000d11b0c9f74754ebdbfc544b05a25860405160405180910390a2565b60008054906101000a900473ffffffffffffffffffffffffffffffffffffffff1681565b60055481565b600b5481565b60008054906101000a900473ffffffffffffffffffffffffffffffffffffffff1673ffffffffffffffffffffffffffffffffffffffff163373ffffffffffffffffffffffffffffffffffffffff161461101b576040517f08c379a00000000000000000000000000000000000000000000000000000000081526004016110129061210f565b60405180910390fd5b6000811161105e576040517f08c379a0000000000000000000000000000000000000000000000000000000008152600401611055906126de565b60405180910390fd5b806005819055507f32ee7f05c4b3ac70c28026942a766e56e75bb93d501d002fbb90433c30f6b254816040516110949190611e04565b60405180910390a150565b60008054906101000a900473ffffffffffffffffffffffffffffffffffffffff1673ffffffffffffffffffffffffffffffffffffffff163373ffffffffffffffffffffffffffffffffffffffff161461112d576040517f08c379a00000000000000000000000000000000000000000000000000000000081526004016111249061210f565b60405180910390fd5b600073ffffffffffffffffffffffffffffffffffffffff168173ffffffffffffffffffffffffffffffffffffffff160361119c576040517f08c379a00000000000000000000000000000000000000000000000000000000081526004016111939061274a565b60405180910390fd5b80600260006101000a81548173ffffffffffffffffffffffffffffffffffffffff021916908373ffffffffffffffffffffffffffffffffffffffff16021790555050565b60045481565b61138881565b7f000000000000000000000000000000000000000000000000000000000000000081565b60008054906101000a900473ffffffffffffffffffffffffffffffffffffffff1673ffffffffffffffffffffffffffffffffffffffff163373ffffffffffffffffffffffffffffffffffffffff161461129e576040517f08c379a00000000000000000000000000000000000000000000000000000000081526004016112959061210f565b60405180910390fd5b600073ffffffffffffffffffffffffffffffffffffffff168173ffffffffffffffffffffffffffffffffffffffff160361130d576040517f08c379a0000000000000000000000000000000000000000000000000000000008152600401611304906127b6565b60405180910390fd5b80600160006101000a81548173ffffffffffffffffffffffffffffffffffffffff021916908373ffffffffffffffffffffffffffffffffffffffff16021790555050565b600080600080600854600954600a54600b54935093509350935090919293565b61138881565b60008054906101000a900473ffffffffffffffffffffffffffffffffffffffff1673ffffffffffffffffffffffffffffffffffffffff163373ffffffffffffffffffffffffffffffffffffffff1614611405576040517f08c379a00000000000000000000000000000000000000000000000000000000081526004016113fc9061210f565b60405180910390fd5b6103e881111561144a576040517f08c379a000000000000000000000000000000000000000000000000000000000815260040161144190612822565b60405180910390fd5b806006819055507ff5a802650e0a86db227cc342f06327d2ca0ff5cf2b12e0084fc5d8a7db2c54fd816040516114809190611e04565b60405180910390a150565b60085481565b60008054906101000a900473ffffffffffffffffffffffffffffffffffffffff1673ffffffffffffffffffffffffffffffffffffffff163373ffffffffffffffffffffffffffffffffffffffff161461151f576040517f08c379a00000000000000000000000000000000000000000000000000000000081526004016115169061210f565b60405180910390fd5b600073ffffffffffffffffffffffffffffffffffffffff168173ffffffffffffffffffffffffffffffffffffffff160361158e576040517f08c379a00000000000000000000000000000000000000000000000000000000081526004016115859061288e565b60405180910390fd5b60008060009054906101000a900473ffffffffffffffffffffffffffffffffffffffff169050816000806101000a81548173ffffffffffffffffffffffffffffffffffffffff021916908373ffffffffffffffffffffffffffffffffffffffff1602179055508173ffffffffffffffffffffffffffffffffffffffff168173ffffffffffffffffffffffffffffffffffffffff167f8be0079c531659141344cd1fd0a4f28419497f9722a3daafe3b4186f6b6457e060405160405180910390a35050565b600160009054906101000a900473ffffffffffffffffffffffffffffffffffffffff1681565b7f000000000000000000000000000000000000000000000000000000000000000081565b6000810315611aa7576000600267ffffffffffffffff8111156116c2576116c16128ae565b5b6040519080825280602002602001820160405280156116f05781602001602082028036833780820191505090505b509050600160009054906101000a900473ffffffffffffffffffffffffffffffffffffffff1673ffffffffffffffffffffffffffffffffffffffff1663ad5c46486040518163ffffffff1660e01b8152600401602060405180830381865afa158015611760573d6000803e3d6000fd5b505050506040513d601f19601f8201168201806040525081019061178491906128f2565b816000815181106117985761179761291f565b5b602002602001019073ffffffffffffffffffffffffffffffffffffffff16908173ffffffffffffffffffffffffffffffffffffffff16815250507f0000000000000000000000000000000000000000000000000000000000000000816001815181106118075761180661291f565b5b602002602001019073ffffffffffffffffffffffffffffffffffffffff16908173ffffffffffffffffffffffffffffffffffffffff16815250506000600160009054906101000a900473ffffffffffffffffffffffffffffffffffffffff1673ffffffffffffffffffffffffffffffffffffffff1663d06ca61f84846040518363ffffffff1660e01b81526004016118a0929190612a0c565b600060405180830381865afa1580156118bd573d6000803e3d6000fd5b505050506040513d6000823e3d601f19601f820116820180604052508101906118e69190612b7b565b905060006127106006546127106118fd919061265e565b836001815181106119115761191061291f565b5b602002602001015161192391906125bc565b61192d919061262d565b90506000600160009054906101000a900473ffffffffffffffffffffffffffffffffffffffff1673ffffffffffffffffffffffffffffffffffffffff16637ff36ab58684877f0000000000000000000000000000000000000000000000000000000000000000426040518663ffffffff1660e01b81526004016119b39493929190612bc4565b60006040518083038185885af11580156119d1573d6000803e3d6000fd5b50505050506040513d6000823e3d601f19601f820116820180604052508101906119fb9190612b7b565b905080600181518110611a1157611a1061291f565b5b602002602001015160096000828254611a2a9190612468565b925050819055507ff7e3493d2eb6a455012bf7667cb0e1563155e97974bcf902b23dc50b0a76bb1f8582600181518110611a6757611a6661291f565b5b602002602001015183600181518110611a8357611a8261291f565b5b6020026020010151604051611a9a93929190612c10565b60405180910390a1505050505b50565b6000810315611de85760007f000000000000000000000000000000000000000000000000000000000000000073ffffffffffffffffffffffffffffffffffffffff166370a08231306040518263ffffffff1660e01b8152600401611b0e9190611f0c565b602060405180830381865afa158015611b2b573d6000803e3d6000fd5b505050506040513d601f19601f82011682018060405250810190611b4f9190612c47565b905060008103611b9f57611b628261169c565b7f6f7f5bf1416f45cdcd637ae5b3345036f0fcb31fef839f07a495b8c767fe602882604051611b919190611e04565b60405180910390a150611de8565b7f000000000000000000000000000000000000000000000000000000000000000073ffffffffffffffffffffffffffffffffffffffff1663095ea7b3600160009054906101000a900473ffffffffffffffffffffffffffffffffffffffff16836040518363ffffffff1660e01b8152600401611c1c92919061219b565b6020604051808303816000875af1158015611c3b573d6000803e3d6000fd5b505050506040513d601f19601f82011682018060405250810190611c5f91906121f0565b50600160009054906101000a900473ffffffffffffffffffffffffffffffffffffffff1673ffffffffffffffffffffffffffffffffffffffff1663f305d719837f000000000000000000000000000000000000000000000000000000000000000084600080600260009054906101000a900473ffffffffffffffffffffffffffffffffffffffff16426040518863ffffffff1660e01b8152600401611d0996959493929190612caf565b60606040518083038185885af193505050508015611d4557506040513d601f19601f82011682018060405250810190611d429190612d10565b60015b611d8e57611d528261169c565b7f6f7f5bf1416f45cdcd637ae5b3345036f0fcb31fef839f07a495b8c767fe602882604051611d819190611e04565b60405180910390a1611de6565b80600a6000828254611da09190612468565b925050819055507fd7f28048575eead8851d024ead087913957dfb4fd1a02b4d1573f5352a5a2be3828483604051611dda93929190612c10565b60405180910390a15050505b505b50565b6000819050919050565b611dfe81611deb565b82525050565b6000602082019050611e196000830184611df5565b92915050565b6000604051905090565b600080fd5b600080fd5b600073ffffffffffffffffffffffffffffffffffffffff82169050919050565b6000611e5e82611e33565b9050919050565b611e6e81611e53565b8114611e7957600080fd5b50565b600081359050611e8b81611e65565b92915050565b611e9a81611deb565b8114611ea557600080fd5b50565b600081359050611eb781611e91565b92915050565b60008060408385031215611ed457611ed3611e29565b5b6000611ee285828601611e7c565b9250506020611ef385828601611ea8565b9150509250929050565b611f0681611e53565b82525050565b6000602082019050611f216000830184611efd565b92915050565b600060208284031215611f3d57611f3c611e29565b5b6000611f4b84828501611ea8565b91505092915050565b60008115159050919050565b611f6981611f54565b82525050565b6000602082019050611f846000830184611f60565b92915050565b600060208284031215611fa057611f9f611e29565b5b6000611fae84828501611e7c565b91505092915050565b6000608082019050611fcc6000830187611df5565b611fd96020830186611df5565b611fe66040830185611df5565b611ff36060830184611df5565b95945050505050565b6000819050919050565b600061202161201c61201784611e33565b611ffc565b611e33565b9050919050565b600061203382612006565b9050919050565b600061204582612028565b9050919050565b6120558161203a565b82525050565b6000602082019050612070600083018461204c565b92915050565b600061208182612028565b9050919050565b61209181612076565b82525050565b60006020820190506120ac6000830184612088565b92915050565b600082825260208201905092915050565b7f6e6f74206f776e65720000000000000000000000000000000000000000000000600082015250565b60006120f96009836120b2565b9150612104826120c3565b602082019050919050565b60006020820190508181036000830152612128816120ec565b9050919050565b7f746f3d3000000000000000000000000000000000000000000000000000000000600082015250565b60006121656004836120b2565b91506121708261212f565b602082019050919050565b6000602082019050818103600083015261219481612158565b9050919050565b60006040820190506121b06000830185611efd565b6121bd6020830184611df5565b9392505050565b6121cd81611f54565b81146121d857600080fd5b50565b6000815190506121ea816121c4565b92915050565b60006020828403121561220657612205611e29565b5b6000612214848285016121db565b91505092915050565b7f6e6f7420677561726469616e0000000000000000000000000000000000000000600082015250565b6000612253600c836120b2565b915061225e8261221d565b602082019050919050565b6000602082019050818103600083015261228281612246565b9050919050565b7f696e73756666696369656e740000000000000000000000000000000000000000600082015250565b60006122bf600c836120b2565b91506122ca82612289565b602082019050919050565b600060208201905081810360008301526122ee816122b2565b9050919050565b7f6d696e2031680000000000000000000000000000000000000000000000000000600082015250565b600061232b6006836120b2565b9150612336826122f5565b602082019050919050565b6000602082019050818103600083015261235a8161231e565b9050919050565b7f6d61782037640000000000000000000000000000000000000000000000000000600082015250565b60006123976006836120b2565b91506123a282612361565b602082019050919050565b600060208201905081810360008301526123c68161238a565b9050919050565b7f5061757361626c653a2070617573656400000000000000000000000000000000600082015250565b60006124036010836120b2565b915061240e826123cd565b602082019050919050565b60006020820190508181036000830152612432816123f6565b9050919050565b7f4e487b7100000000000000000000000000000000000000000000000000000000600052601160045260246000fd5b600061247382611deb565b915061247e83611deb565b925082820190508082111561249657612495612439565b5b92915050565b7f636f6f6c646f776e000000000000000000000000000000000000000000000000600082015250565b60006124d26008836120b2565b91506124dd8261249c565b602082019050919050565b60006020820190508181036000830152612501816124c5565b9050919050565b7f696e73756666696369656e742045544800000000000000000000000000000000600082015250565b600061253e6010836120b2565b915061254982612508565b602082019050919050565b6000602082019050818103600083015261256d81612531565b9050919050565b600061257f82611deb565b91507fffffffffffffffffffffffffffffffffffffffffffffffffffffffffffffffff82036125b1576125b0612439565b5b600182019050919050565b60006125c782611deb565b91506125d283611deb565b92508282026125e081611deb565b915082820484148315176125f7576125f6612439565b5b5092915050565b7f4e487b7100000000000000000000000000000000000000000000000000000000600052601260045260246000fd5b600061263882611deb565b915061264383611deb565b925082612653576126526125fe565b5b828204905092915050565b600061266982611deb565b915061267483611deb565b925082820390508181111561268c5761268b612439565b5b92915050565b7f6d696e3d30000000000000000000000000000000000000000000000000000000600082015250565b60006126c86005836120b2565b91506126d382612692565b602082019050919050565b600060208201905081810360008301526126f7816126bb565b9050919050565b7f6c7052656365697665723d300000000000000000000000000000000000000000600082015250565b6000612734600c836120b2565b915061273f826126fe565b602082019050919050565b6000602082019050818103600083015261276381612727565b9050919050565b7f726f757465723d30000000000000000000000000000000000000000000000000600082015250565b60006127a06008836120b2565b91506127ab8261276a565b602082019050919050565b600060208201905081810360008301526127cf81612793565b9050919050565b7f6d61782031302500000000000000000000000000000000000000000000000000600082015250565b600061280c6007836120b2565b9150612817826127d6565b602082019050919050565b6000602082019050818103600083015261283b816127ff565b9050919050565b7f6e65774f776e65723d3000000000000000000000000000000000000000000000600082015250565b6000612878600a836120b2565b915061288382612842565b602082019050919050565b600060208201905081810360008301526128a78161286b565b9050919050565b7f4e487b7100000000000000000000000000000000000000000000000000000000600052604160045260246000fd5b6000815190506128ec81611e65565b92915050565b60006020828403121561290857612907611e29565b5b6000612916848285016128dd565b91505092915050565b7f4e487b7100000000000000000000000000000000000000000000000000000000600052603260045260246000fd5b600081519050919050565b600082825260208201905092915050565b6000819050602082019050919050565b61298381611e53565b82525050565b6000612995838361297a565b60208301905092915050565b6000602082019050919050565b60006129b98261294e565b6129c38185612959565b93506129ce8361296a565b8060005b838110156129ff5781516129e68882612989565b97506129f1836129a1565b9250506001810190506129d2565b5085935050505092915050565b6000604082019050612a216000830185611df5565b8181036020830152612a3381846129ae565b90509392505050565b600080fd5b6000601f19601f8301169050919050565b612a5b82612a41565b810181811067ffffffffffffffff82111715612a7a57612a796128ae565b5b80604052505050565b6000612a8d611e1f565b9050612a998282612a52565b919050565b600067ffffffffffffffff821115612ab957612ab86128ae565b5b602082029050602081019050919050565b600080fd5b600081519050612ade81611e91565b92915050565b6000612af7612af284612a9e565b612a83565b90508083825260208201905060208402830185811115612b1a57612b19612aca565b5b835b81811015612b435780612b2f8882612acf565b845260208401935050602081019050612b1c565b5050509392505050565b600082601f830112612b6257612b61612a3c565b5b8151612b72848260208601612ae4565b91505092915050565b600060208284031215612b9157612b90611e29565b5b600082015167ffffffffffffffff811115612baf57612bae611e2e565b5b612bbb84828501612b4d565b91505092915050565b6000608082019050612bd96000830187611df5565b8181036020830152612beb81866129ae565b9050612bfa6040830185611efd565b612c076060830184611df5565b95945050505050565b6000606082019050612c256000830186611df5565b612c326020830185611df5565b612c3f6040830184611df5565b949350505050565b600060208284031215612c5d57612c5c611e29565b5b6000612c6b84828501612acf565b91505092915050565b6000819050919050565b6000612c99612c94612c8f84612c74565b611ffc565b611deb565b9050919050565b612ca981612c7e565b82525050565b600060c082019050612cc46000830189611efd565b612cd16020830188611df5565b612cde6040830187612ca0565b612ceb6060830186612ca0565b612cf86080830185611efd565b612d0560a0830184611df5565b979650505050505050565b600080600060608486031215612d2957612d28611e29565b5b6000612d3786828701612acf565b9350506020612d4886828701612acf565b9250506040612d5986828701612acf565b915050925092509256fea26469706673582212203d32e339e5bf67e03228a16acdcb99899fbb6e90b4503e237e1bd0d39af3247764736f6c63430008140033",
  "linkReferences": {},
  "deployedLinkReferences": {}
}