{
  "_format": "hh-sol-artifact-1",
  "contractName": "CommitmentVault",
  "sourceName": "contracts/vault/CommitmentVault.sol",
  "abi": [
    {
      "inputs": [
        {
          "internalType": "address",
          "name": "_ifrToken",
          "type": "address"
        },
        {
          "internalType": "address",
          "name": "_governance",
          "type": "address"
        }
      ],
      "stateMutability": "nonpayable",
      "type": "constructor"
    },
    {
      "inputs": [
        {
          "internalType": "address",
          "name": "owner",
          "type": "address"
        }
      ],
      "name": "OwnableInvalidOwner",
      "type": "error"
    },
    {
      "inputs": [
        {
          "internalType": "address",
          "name": "account",
          "type": "address"
        }
      ],
      "name": "OwnableUnauthorizedAccount",
      "type": "error"
    },
    {
      "inputs": [],
      "name": "ReentrancyGuardReentrantCall",
      "type": "error"
    },
    {
      "anonymous": false,
      "inputs": [
        {
          "indexed": true,
          "internalType": "address",
          "name": "wallet",
          "type": "address"
        },
        {
          "indexed": true,
          "internalType": "uint256",
          "name": "trancheId",
          "type": "uint256"
        },
        {
          "indexed": false,
          "internalType": "uint256",
          "name": "timestamp",
          "type": "uint256"
        }
      ],
      "name": "ConditionMet",
      "type": "event"
    },
    {
      "anonymous": false,
      "inputs": [
        {
          "indexed": true,
          "internalType": "address",
          "name": "wallet",
          "type": "address"
        },
        {
          "indexed": true,
          "internalType": "uint256",
          "name": "trancheId",
          "type": "uint256"
        },
        {
          "indexed": false,
          "internalType": "uint256",
          "name": "amount",
          "type": "uint256"
        },
        {
          "indexed": false,
          "internalType": "enum CommitmentVault.ConditionType",
          "name": "cType",
          "type": "uint8"
        }
      ],
      "name": "Locked",
      "type": "event"
    },
    {
      "anonymous": false,
      "inputs": [
        {
          "indexed": true,
          "internalType": "address",
          "name": "previousOwner",
          "type": "address"
        },
        {
          "indexed": true,
          "internalType": "address",
          "name": "newOwner",
          "type": "address"
        }
      ],
      "name": "OwnershipTransferred",
      "type": "event"
    },
    {
      "anonymous": false,
      "inputs": [
        {
          "indexed": false,
          "internalType": "uint256",
          "name": "p0",
          "type": "uint256"
        }
      ],
      "name": "P0Set",
      "type": "event"
    },
    {
      "anonymous": false,
      "inputs": [
        {
          "indexed": true,
          "internalType": "address",
          "name": "oracle",
          "type": "address"
        }
      ],
      "name": "PriceOracleUpdated",
      "type": "event"
    },
    {
      "anonymous": false,
      "inputs": [
        {
          "indexed": true,
          "internalType": "address",
          "name": "wallet",
          "type": "address"
        },
        {
          "indexed": true,
          "internalType": "uint256",
          "name": "trancheId",
          "type": "uint256"
        },
        {
          "indexed": false,
          "internalType": "uint256",
          "name": "amount",
          "type": "uint256"
        },
        {
          "indexed": false,
          "internalType": "address",
          "name": "unlockedBy",
          "type": "address"
        }
      ],
      "name": "Unlocked",
      "type": "event"
    },
    {
      "inputs": [],
      "name": "AUTO_UNLOCK_DELAY",
      "outputs": [
        {
          "internalType": "uint256",
          "name": "",
          "type": "uint256"
        }
      ],
      "stateMutability": "view",
      "type": "function"
    },
    {
      "inputs": [],
      "name": "MAX_TRANCHES",
      "outputs": [
        {
          "internalType": "uint256",
          "name": "",
          "type": "uint256"
        }
      ],
      "stateMutability": "view",
      "type": "function"
    },
    {
      "inputs": [
        {
          "internalType": "address",
          "name": "wallet",
          "type": "address"
        },
        {
          "internalType": "uint256",
          "name": "trancheId",
          "type": "uint256"
        }
      ],
      "name": "getTranche",
      "outputs": [
        {
          "components": [
            {
              "internalType": "uint256",
              "name": "amount",
              "type": "uint256"
            },
            {
              "internalType": "enum CommitmentVault.ConditionType",
              "name": "cType",
              "type": "uint8"
            },
            {
              "internalType": "uint256",
              "name": "unlockTime",
              "type": "uint256"
            },
            {
              "internalType": "uint256",
              "name": "p0Multiplier",
              "type": "uint256"
            },
            {
              "internalType": "bool",
              "name": "unlocked",
              "type": "bool"
            },
            {
              "internalType": "uint256",
              "name": "conditionMetAt",
              "type": "uint256"
            }
          ],
          "internalType": "struct CommitmentVault.Tranche",
          "name": "",
          "type": "tuple"
        }
      ],
      "stateMutability": "view",
      "type": "function"
    },
    {
      "inputs": [
        {
          "internalType": "address",
          "name": "wallet",
          "type": "address"
        }
      ],
      "name": "getTrancheCount",
      "outputs": [
        {
          "internalType": "uint256",
          "name": "",
          "type": "uint256"
        }
      ],
      "stateMutability": "view",
      "type": "function"
    },
    {
      "inputs": [
        {
          "internalType": "address",
          "name": "wallet",
          "type": "address"
        }
      ],
      "name": "getTranches",
      "outputs": [
        {
          "components": [
            {
              "internalType": "uint256",
              "name": "amount",
              "type": "uint256"
            },
            {
              "internalType": "enum CommitmentVault.ConditionType",
              "name": "cType",
              "type": "uint8"
            },
            {
              "internalType": "uint256",
              "name": "unlockTime",
              "type": "uint256"
            },
            {
              "internalType": "uint256",
              "name": "p0Multiplier",
              "type": "uint256"
            },
            {
              "internalType": "bool",
              "name": "unlocked",
              "type": "bool"
            },
            {
              "internalType": "uint256",
              "name": "conditionMetAt",
              "type": "uint256"
            }
          ],
          "internalType": "struct CommitmentVault.Tranche[]",
          "name": "",
          "type": "tuple[]"
        }
      ],
      "stateMutability": "view",
      "type": "function"
    },
    {
      "inputs": [
        {
          "internalType": "address",
          "name": "wallet",
          "type": "address"
        }
      ],
      "name": "hasActiveLock",
      "outputs": [
        {
          "internalType": "bool",
          "name": "",
          "type": "bool"
        }
      ],
      "stateMutability": "view",
      "type": "function"
    },
    {
      "inputs": [],
      "name": "ifrToken",
      "outputs": [
        {
          "internalType": "contract IERC20",
          "name": "",
          "type": "address"
        }
      ],
      "stateMutability": "view",
      "type": "function"
    },
    {
      "inputs": [
        {
          "internalType": "address",
          "name": "wallet",
          "type": "address"
        },
        {
          "internalType": "uint256",
          "name": "trancheId",
          "type": "uint256"
        }
      ],
      "name": "isConditionMet",
      "outputs": [
        {
          "internalType": "bool",
          "name": "",
          "type": "bool"
        }
      ],
      "stateMutability": "view",
      "type": "function"
    },
    {
      "inputs": [
        {
          "internalType": "uint256",
          "name": "amount",
          "type": "uint256"
        },
        {
          "internalType": "enum CommitmentVault.ConditionType",
          "name": "cType",
          "type": "uint8"
        },
        {
          "internalType": "uint256",
          "name": "unlockTime",
          "type": "uint256"
        },
        {
          "internalType": "uint256",
          "name": "p0Multiplier",
          "type": "uint256"
        }
      ],
      "name": "lock",
      "outputs": [],
      "stateMutability": "nonpayable",
      "type": "function"
    },
    {
      "inputs": [
        {
          "internalType": "address",
          "name": "wallet",
          "type": "address"
        }
      ],
      "name": "lockedBalance",
      "outputs": [
        {
          "internalType": "uint256",
          "name": "",
          "type": "uint256"
        }
      ],
      "stateMutability": "view",
      "type": "function"
    },
    {
      "inputs": [
        {
          "internalType": "address",
          "name": "wallet",
          "type": "address"
        },
        {
          "internalType": "uint256",
          "name": "trancheId",
          "type": "uint256"
        }
      ],
      "name": "markConditionMet",
      "outputs": [],
      "stateMutability": "nonpayable",
      "type": "function"
    },
    {
      "inputs": [],
      "name": "owner",
      "outputs": [
        {
          "internalType": "address",
          "name": "",
          "type": "address"
        }
      ],
      "stateMutability": "view",
      "type": "function"
    },
    {
      "inputs": [],
      "name": "p0",
      "outputs": [
        {
          "internalType": "uint256",
          "name": "",
          "type": "uint256"
        }
      ],
      "stateMutability": "view",
      "type": "function"
    },
    {
      "inputs": [],
      "name": "p0Set",
      "outputs": [
        {
          "internalType": "bool",
          "name": "",
          "type": "bool"
        }
      ],
      "stateMutability": "view",
      "type": "function"
    },
    {
      "inputs": [],
      "name": "priceOracle",
      "outputs": [
        {
          "internalType": "address",
          "name": "",
          "type": "address"
        }
      ],
      "stateMutability": "view",
      "type": "function"
    },
    {
      "inputs": [],
      "name": "renounceOwnership",
      "outputs": [],
      "stateMutability": "nonpayable",
      "type": "function"
    },
    {
      "inputs": [
        {
          "internalType": "uint256",
          "name": "_p0",
          "type": "uint256"
        }
      ],
      "name": "setP0",
      "outputs": [],
      "stateMutability": "nonpayable",
      "type": "function"
    },
    {
      "inputs": [
        {
          "internalType": "address",
          "name": "_oracle",
          "type": "address"
        }
      ],
      "name": "setPriceOracle",
      "outputs": [],
      "stateMutability": "nonpayable",
      "type": "function"
    },
    {
      "inputs": [],
      "name": "totalLocked",
      "outputs": [
        {
          "internalType": "uint256",
          "name": "",
          "type": "uint256"
        }
      ],
      "stateMutability": "view",
      "type": "function"
    },
    {
      "inputs": [
        {
          "internalType": "address",
          "name": "newOwner",
          "type": "address"
        }
      ],
      "name": "transferOwnership",
      "outputs": [],
      "stateMutability": "nonpayable",
      "type": "function"
    },
    {
      "inputs": [
        {
          "internalType": "address",
          "name": "wallet",
          "type": "address"
        },
        {
          "internalType": "uint256",
          "name": "trancheId",
          "type": "uint256"
        }
      ],
      "name": "unlock",
      "outputs": [],
      "stateMutability": "nonpayable",
      "type": "function"
    }
  ],
  "bytecode": "0x60a06040523480156200001157600080fd5b5060405162002c7638038062002c768339818101604052810190620000379190620002a2565b80600073ffffffffffffffffffffffffffffffffffffffff168173ffffffffffffffffffffffffffffffffffffffff1603620000ad5760006040517f1e4fbdf7000000000000000000000000000000000000000000000000000000008152600401620000a49190620002fa565b60405180910390fd5b620000be816200017460201b60201c565b5060018081905550600073ffffffffffffffffffffffffffffffffffffffff168273ffffffffffffffffffffffffffffffffffffffff160362000138576040517f08c379a00000000000000000000000000000000000000000000000000000000081526004016200012f9062000378565b60405180910390fd5b8173ffffffffffffffffffffffffffffffffffffffff1660808173ffffffffffffffffffffffffffffffffffffffff168152505050506200039a565b60008060009054906101000a900473ffffffffffffffffffffffffffffffffffffffff169050816000806101000a81548173ffffffffffffffffffffffffffffffffffffffff021916908373ffffffffffffffffffffffffffffffffffffffff1602179055508173ffffffffffffffffffffffffffffffffffffffff168173ffffffffffffffffffffffffffffffffffffffff167f8be0079c531659141344cd1fd0a4f28419497f9722a3daafe3b4186f6b6457e060405160405180910390a35050565b600080fd5b600073ffffffffffffffffffffffffffffffffffffffff82169050919050565b60006200026a826200023d565b9050919050565b6200027c816200025d565b81146200028857600080fd5b50565b6000815190506200029c8162000271565b92915050565b60008060408385031215620002bc57620002bb62000238565b5b6000620002cc858286016200028b565b9250506020620002df858286016200028b565b9150509250929050565b620002f4816200025d565b82525050565b6000602082019050620003116000830184620002e9565b92915050565b600082825260208201905092915050565b7f746f6b656e3d3000000000000000000000000000000000000000000000000000600082015250565b60006200036060078362000317565b91506200036d8262000328565b602082019050919050565b60006020820190508181036000830152620003938162000351565b9050919050565b6080516128b2620003c460003960008181610630015281816108d40152610c7b01526128b26000f3fe608060405234801561001057600080fd5b50600436106101375760003560e01c806383cb5247116100b8578063a45c1a811161007c578063a45c1a811461032c578063b0134f0914610348578063b2a561fb14610378578063c17e2ccb14610394578063eeb44d69146103b2578063f2fde38b146103e257610137565b806383cb52471461027457806389506a44146102905780638da5cb5b146102ae5780639ae697bf146102cc578063a20fa312146102fc57610137565b8063530e784f116100ff578063530e784f146101f657806356891412146102125780635bbf7b7614610230578063715018a61461024e5780637eee288d1461025857610137565b80632630c12f1461013c578063264e49db1461015a57806339732bcc146101785780633cf53864146101a857806349cfece1146101c6575b600080fd5b6101446103fe565b6040516101519190611b98565b60405180910390f35b610162610424565b60405161016f9190611bcc565b60405180910390f35b610192600480360381019061018d9190611c18565b61042a565b60405161019f9190611e10565b60405180910390f35b6101b0610546565b6040516101bd9190611bcc565b60405180910390f35b6101e060048036038101906101db9190611c18565b61054d565b6040516101ed9190611bcc565b60405180910390f35b610210600480360381019061020b9190611c18565b610599565b005b61021a610628565b6040516102279190611bcc565b60405180910390f35b61023861062e565b6040516102459190611e91565b60405180910390f35b610256610652565b005b610272600480360381019061026d9190611ed8565b610666565b005b61028e60048036038101906102899190611f3d565b610a0e565b005b610298610f3d565b6040516102a59190611bcc565b60405180910390f35b6102b6610f42565b6040516102c39190611b98565b60405180910390f35b6102e660048036038101906102e19190611c18565b610f6b565b6040516102f39190611bcc565b60405180910390f35b61031660048036038101906103119190611c18565b61104b565b6040516103239190611fb3565b60405180910390f35b61034660048036038101906103419190611ed8565b6110fe565b005b610362600480360381019061035d9190611ed8565b611324565b60405161036f9190612049565b60405180910390f35b610392600480360381019061038d9190612064565b6114a0565b005b61039c611597565b6040516103a99190611fb3565b60405180910390f35b6103cc60048036038101906103c79190611ed8565b6115aa565b6040516103d99190611fb3565b60405180910390f35b6103fc60048036038101906103f79190611c18565b61187d565b005b600660009054906101000a900473ffffffffffffffffffffffffffffffffffffffff1681565b60025481565b6060600560008373ffffffffffffffffffffffffffffffffffffffff1673ffffffffffffffffffffffffffffffffffffffff168152602001908152602001600020805480602002602001604051908101604052809291908181526020016000905b8282101561053b57838290600052602060002090600602016040518060c0016040529081600082015481526020016001820160009054906101000a900460ff1660038111156104dd576104dc611c80565b5b60038111156104ef576104ee611c80565b5b815260200160028201548152602001600382015481526020016004820160009054906101000a900460ff161515151581526020016005820154815250508152602001906001019061048b565b505050509050919050565b62278d0081565b6000600560008373ffffffffffffffffffffffffffffffffffffffff1673ffffffffffffffffffffffffffffffffffffffff168152602001908152602001600020805490509050919050565b6105a1611903565b80600660006101000a81548173ffffffffffffffffffffffffffffffffffffffff021916908373ffffffffffffffffffffffffffffffffffffffff1602179055508073ffffffffffffffffffffffffffffffffffffffff167fefe8ab924ca486283a79dc604baa67add51afb82af1db8ac386ebbba643cdffd60405160405180910390a250565b60045481565b7f000000000000000000000000000000000000000000000000000000000000000081565b61065a611903565b610664600061198a565b565b61066e611a4e565b600560008373ffffffffffffffffffffffffffffffffffffffff1673ffffffffffffffffffffffffffffffffffffffff1681526020019081526020016000208054905081106106f2576040517f08c379a00000000000000000000000000000000000000000000000000000000081526004016106e9906120ee565b60405180910390fd5b6000600560008473ffffffffffffffffffffffffffffffffffffffff1673ffffffffffffffffffffffffffffffffffffffff16815260200190815260200160002082815481106107455761074461210e565b5b906000526020600020906006020190508060040160009054906101000a900460ff16156107a7576040517f08c379a000000000000000000000000000000000000000000000000000000000815260040161079e90612189565b60405180910390fd5b6107b183836115aa565b6107f0576040517f08c379a00000000000000000000000000000000000000000000000000000000081526004016107e7906121f5565b60405180910390fd5b8273ffffffffffffffffffffffffffffffffffffffff163373ffffffffffffffffffffffffffffffffffffffff16146108895760008160050154118015610849575062278d0081600501546108459190612244565b4210155b610888576040517f08c379a000000000000000000000000000000000000000000000000000000000815260040161087f906122c4565b60405180910390fd5b5b60018160040160006101000a81548160ff0219169083151502179055506000816000015490506000826000018190555080600460008282546108cb91906122e4565b925050819055507f000000000000000000000000000000000000000000000000000000000000000073ffffffffffffffffffffffffffffffffffffffff1663a9059cbb85836040518363ffffffff1660e01b815260040161092d929190612318565b6020604051808303816000875af115801561094c573d6000803e3d6000fd5b505050506040513d601f19601f82011682018060405250810190610970919061236d565b6109af576040517f08c379a00000000000000000000000000000000000000000000000000000000081526004016109a6906123e6565b60405180910390fd5b828473ffffffffffffffffffffffffffffffffffffffff167f297c3df4c810abcbc10a21e9b9de195f149e2b7b635338e966705df3034fb05583336040516109f8929190612406565b60405180910390a35050610a0a611a94565b5050565b610a16611a4e565b60008411610a59576040517f08c379a0000000000000000000000000000000000000000000000000000000008152600401610a509061247b565b60405180910390fd5b6032600560003373ffffffffffffffffffffffffffffffffffffffff1673ffffffffffffffffffffffffffffffffffffffff1681526020019081526020016000208054905010610ade576040517f08c379a0000000000000000000000000000000000000000000000000000000008152600401610ad5906124e7565b60405180910390fd5b60006003811115610af257610af1611c80565b5b836003811115610b0557610b04611c80565b5b1480610b35575060026003811115610b2057610b1f611c80565b5b836003811115610b3357610b32611c80565b5b145b80610b635750600380811115610b4e57610b4d611c80565b5b836003811115610b6157610b60611c80565b5b145b15610bab57428211610baa576040517f08c379a0000000000000000000000000000000000000000000000000000000008152600401610ba190612553565b60405180910390fd5b5b60016003811115610bbf57610bbe611c80565b5b836003811115610bd257610bd1611c80565b5b1480610c02575060026003811115610bed57610bec611c80565b5b836003811115610c0057610bff611c80565b5b145b80610c305750600380811115610c1b57610c1a611c80565b5b836003811115610c2e57610c2d611c80565b5b145b15610c795760008111610c78576040517f08c379a0000000000000000000000000000000000000000000000000000000008152600401610c6f906125bf565b60405180910390fd5b5b7f000000000000000000000000000000000000000000000000000000000000000073ffffffffffffffffffffffffffffffffffffffff166323b872dd3330876040518463ffffffff1660e01b8152600401610cd6939291906125df565b6020604051808303816000875af1158015610cf5573d6000803e3d6000fd5b505050506040513d601f19601f82011682018060405250810190610d19919061236d565b610d58576040517f08c379a0000000000000000000000000000000000000000000000000000000008152600401610d4f906123e6565b60405180910390fd5b6000600560003373ffffffffffffffffffffffffffffffffffffffff1673ffffffffffffffffffffffffffffffffffffffff168152602001908152602001600020805490509050600560003373ffffffffffffffffffffffffffffffffffffffff1673ffffffffffffffffffffffffffffffffffffffff1681526020019081526020016000206040518060c00160405280878152602001866003811115610e0257610e01611c80565b5b8152602001858152602001848152602001600015158152602001600081525090806001815401808255809150506001900390600052602060002090600602016000909190919091506000820151816000015560208201518160010160006101000a81548160ff02191690836003811115610e7f57610e7e611c80565b5b0217905550604082015181600201556060820151816003015560808201518160040160006101000a81548160ff02191690831515021790555060a0820151816005015550508460046000828254610ed69190612244565b92505081905550803373ffffffffffffffffffffffffffffffffffffffff167f3e973ba27792368b01162d82285e9ba43941fc8fa3e40823b7ecfd59a9c776b68787604051610f26929190612625565b60405180910390a350610f37611a94565b50505050565b603281565b60008060009054906101000a900473ffffffffffffffffffffffffffffffffffffffff16905090565b600080600090506000600560008573ffffffffffffffffffffffffffffffffffffffff1673ffffffffffffffffffffffffffffffffffffffff168152602001908152602001600020905060005b818054905081101561104057818181548110610fd757610fd661210e565b5b906000526020600020906006020160040160009054906101000a900460ff1661102d5781818154811061100d5761100c61210e565b5b9060005260206000209060060201600001548361102a9190612244565b92505b80806110389061264e565b915050610fb8565b508192505050919050565b600080600560008473ffffffffffffffffffffffffffffffffffffffff1673ffffffffffffffffffffffffffffffffffffffff168152602001908152602001600020905060005b81805490508110156110f2578181815481106110b1576110b061210e565b5b906000526020600020906006020160040160009054906101000a900460ff166110df576001925050506110f9565b80806110ea9061264e565b915050611092565b5060009150505b919050565b600560008373ffffffffffffffffffffffffffffffffffffffff1673ffffffffffffffffffffffffffffffffffffffff168152602001908152602001600020805490508110611182576040517f08c379a0000000000000000000000000000000000000000000000000000000008152600401611179906120ee565b60405180910390fd5b6000600560008473ffffffffffffffffffffffffffffffffffffffff1673ffffffffffffffffffffffffffffffffffffffff16815260200190815260200160002082815481106111d5576111d461210e565b5b906000526020600020906006020190508060040160009054906101000a900460ff1615611237576040517f08c379a000000000000000000000000000000000000000000000000000000000815260040161122e90612189565b60405180910390fd5b600081600501541461127e576040517f08c379a0000000000000000000000000000000000000000000000000000000008152600401611275906126e2565b60405180910390fd5b61128883836115aa565b6112c7576040517f08c379a00000000000000000000000000000000000000000000000000000000081526004016112be906121f5565b60405180910390fd5b428160050181905550818373ffffffffffffffffffffffffffffffffffffffff167f3bd7c713b9279613e48937dd2ca536ef18f66d014efbafa165b89dc5ad030f47426040516113179190611bcc565b60405180910390a3505050565b61132c611b0d565b600560008473ffffffffffffffffffffffffffffffffffffffff1673ffffffffffffffffffffffffffffffffffffffff1681526020019081526020016000208054905082106113b0576040517f08c379a00000000000000000000000000000000000000000000000000000000081526004016113a7906120ee565b60405180910390fd5b600560008473ffffffffffffffffffffffffffffffffffffffff1673ffffffffffffffffffffffffffffffffffffffff16815260200190815260200160002082815481106114015761140061210e565b5b90600052602060002090600602016040518060c0016040529081600082015481526020016001820160009054906101000a900460ff16600381111561144957611448611c80565b5b600381111561145b5761145a611c80565b5b815260200160028201548152602001600382015481526020016004820160009054906101000a900460ff16151515158152602001600582015481525050905092915050565b6114a8611903565b600360009054906101000a900460ff16156114f8576040517f08c379a00000000000000000000000000000000000000000000000000000000081526004016114ef9061274e565b60405180910390fd5b6000811161153b576040517f08c379a0000000000000000000000000000000000000000000000000000000008152600401611532906127ba565b60405180910390fd5b806002819055506001600360006101000a81548160ff0219169083151502179055507fbec99426a8d4c925bb3ea2ff1dff5d4d6ef998baee83478bbc0f09a12fcb450a8160405161158c9190611bcc565b60405180910390a150565b600360009054906101000a900460ff1681565b6000600560008473ffffffffffffffffffffffffffffffffffffffff1673ffffffffffffffffffffffffffffffffffffffff168152602001908152602001600020805490508210611630576040517f08c379a0000000000000000000000000000000000000000000000000000000008152600401611627906120ee565b60405180910390fd5b6000600560008573ffffffffffffffffffffffffffffffffffffffff1673ffffffffffffffffffffffffffffffffffffffff16815260200190815260200160002083815481106116835761168261210e565b5b906000526020600020906006020190508060040160009054906101000a900460ff16156116b4576001915050611877565b60008082600201541180156116cd575081600201544210155b905060008083600301541180156116f05750600360009054906101000a900460ff165b801561174b5750600073ffffffffffffffffffffffffffffffffffffffff16600660009054906101000a900473ffffffffffffffffffffffffffffffffffffffff1673ffffffffffffffffffffffffffffffffffffffff1614155b156117875760006064846003015460025461176691906127da565b611770919061284b565b9050600061177c611a9d565b905081811015925050505b6000600381111561179b5761179a611c80565b5b8360010160009054906101000a900460ff1660038111156117bf576117be611c80565b5b036117cf57819350505050611877565b600160038111156117e3576117e2611c80565b5b8360010160009054906101000a900460ff16600381111561180757611806611c80565b5b0361181757809350505050611877565b6002600381111561182b5761182a611c80565b5b8360010160009054906101000a900460ff16600381111561184f5761184e611c80565b5b0361186757818061185d5750805b9350505050611877565b8180156118715750805b93505050505b92915050565b611885611903565b600073ffffffffffffffffffffffffffffffffffffffff168173ffffffffffffffffffffffffffffffffffffffff16036118f75760006040517f1e4fbdf70000000000000000000000000000000000000000000000000000000081526004016118ee9190611b98565b60405180910390fd5b6119008161198a565b50565b61190b611b05565b73ffffffffffffffffffffffffffffffffffffffff16611929610f42565b73ffffffffffffffffffffffffffffffffffffffff16146119885761194c611b05565b6040517f118cdaa700000000000000000000000000000000000000000000000000000000815260040161197f9190611b98565b60405180910390fd5b565b60008060009054906101000a900473ffffffffffffffffffffffffffffffffffffffff169050816000806101000a81548173ffffffffffffffffffffffffffffffffffffffff021916908373ffffffffffffffffffffffffffffffffffffffff1602179055508173ffffffffffffffffffffffffffffffffffffffff168173ffffffffffffffffffffffffffffffffffffffff167f8be0079c531659141344cd1fd0a4f28419497f9722a3daafe3b4186f6b6457e060405160405180910390a35050565b600260015403611a8a576040517f3ee5aeb500000000000000000000000000000000000000000000000000000000815260040160405180910390fd5b6002600181905550565b60018081905550565b60008073ffffffffffffffffffffffffffffffffffffffff16600660009054906101000a900473ffffffffffffffffffffffffffffffffffffffff1673ffffffffffffffffffffffffffffffffffffffff1603611afd5760009050611b02565b600090505b90565b600033905090565b6040518060c001604052806000815260200160006003811115611b3357611b32611c80565b5b81526020016000815260200160008152602001600015158152602001600081525090565b600073ffffffffffffffffffffffffffffffffffffffff82169050919050565b6000611b8282611b57565b9050919050565b611b9281611b77565b82525050565b6000602082019050611bad6000830184611b89565b92915050565b6000819050919050565b611bc681611bb3565b82525050565b6000602082019050611be16000830184611bbd565b92915050565b600080fd5b611bf581611b77565b8114611c0057600080fd5b50565b600081359050611c1281611bec565b92915050565b600060208284031215611c2e57611c2d611be7565b5b6000611c3c84828501611c03565b91505092915050565b600081519050919050565b600082825260208201905092915050565b6000819050602082019050919050565b611c7a81611bb3565b82525050565b7f4e487b7100000000000000000000000000000000000000000000000000000000600052602160045260246000fd5b60048110611cc057611cbf611c80565b5b50565b6000819050611cd182611caf565b919050565b6000611ce182611cc3565b9050919050565b611cf181611cd6565b82525050565b60008115159050919050565b611d0c81611cf7565b82525050565b60c082016000820151611d286000850182611c71565b506020820151611d3b6020850182611ce8565b506040820151611d4e6040850182611c71565b506060820151611d616060850182611c71565b506080820151611d746080850182611d03565b5060a0820151611d8760a0850182611c71565b50505050565b6000611d998383611d12565b60c08301905092915050565b6000602082019050919050565b6000611dbd82611c45565b611dc78185611c50565b9350611dd283611c61565b8060005b83811015611e03578151611dea8882611d8d565b9750611df583611da5565b925050600181019050611dd6565b5085935050505092915050565b60006020820190508181036000830152611e2a8184611db2565b905092915050565b6000819050919050565b6000611e57611e52611e4d84611b57565b611e32565b611b57565b9050919050565b6000611e6982611e3c565b9050919050565b6000611e7b82611e5e565b9050919050565b611e8b81611e70565b82525050565b6000602082019050611ea66000830184611e82565b92915050565b611eb581611bb3565b8114611ec057600080fd5b50565b600081359050611ed281611eac565b92915050565b60008060408385031215611eef57611eee611be7565b5b6000611efd85828601611c03565b9250506020611f0e85828601611ec3565b9150509250929050565b60048110611f2557600080fd5b50565b600081359050611f3781611f18565b92915050565b60008060008060808587031215611f5757611f56611be7565b5b6000611f6587828801611ec3565b9450506020611f7687828801611f28565b9350506040611f8787828801611ec3565b9250506060611f9887828801611ec3565b91505092959194509250565b611fad81611cf7565b82525050565b6000602082019050611fc86000830184611fa4565b92915050565b60c082016000820151611fe46000850182611c71565b506020820151611ff76020850182611ce8565b50604082015161200a6040850182611c71565b50606082015161201d6060850182611c71565b5060808201516120306080850182611d03565b5060a082015161204360a0850182611c71565b50505050565b600060c08201905061205e6000830184611fce565b92915050565b60006020828403121561207a57612079611be7565b5b600061208884828501611ec3565b91505092915050565b600082825260208201905092915050565b7f696e76616c6964207472616e6368654964000000000000000000000000000000600082015250565b60006120d8601183612091565b91506120e3826120a2565b602082019050919050565b60006020820190508181036000830152612107816120cb565b9050919050565b7f4e487b7100000000000000000000000000000000000000000000000000000000600052603260045260246000fd5b7f616c726561647920756e6c6f636b656400000000000000000000000000000000600082015250565b6000612173601083612091565b915061217e8261213d565b602082019050919050565b600060208201905081810360008301526121a281612166565b9050919050565b7f636f6e646974696f6e206e6f74206d6574000000000000000000000000000000600082015250565b60006121df601183612091565b91506121ea826121a9565b602082019050919050565b6000602082019050818103600083015261220e816121d2565b9050919050565b7f4e487b7100000000000000000000000000000000000000000000000000000000600052601160045260246000fd5b600061224f82611bb3565b915061225a83611bb3565b925082820190508082111561227257612271612215565b5b92915050565b7f6175746f2d756e6c6f636b3a203330642064656c617900000000000000000000600082015250565b60006122ae601683612091565b91506122b982612278565b602082019050919050565b600060208201905081810360008301526122dd816122a1565b9050919050565b60006122ef82611bb3565b91506122fa83611bb3565b925082820390508181111561231257612311612215565b5b92915050565b600060408201905061232d6000830185611b89565b61233a6020830184611bbd565b9392505050565b61234a81611cf7565b811461235557600080fd5b50565b60008151905061236781612341565b92915050565b60006020828403121561238357612382611be7565b5b600061239184828501612358565b91505092915050565b7f7472616e73666572206661696c65640000000000000000000000000000000000600082015250565b60006123d0600f83612091565b91506123db8261239a565b602082019050919050565b600060208201905081810360008301526123ff816123c3565b9050919050565b600060408201905061241b6000830185611bbd565b6124286020830184611b89565b9392505050565b7f616d6f756e743d30000000000000000000000000000000000000000000000000600082015250565b6000612465600883612091565b91506124708261242f565b602082019050919050565b6000602082019050818103600083015261249481612458565b9050919050565b7f6d6178207472616e636865732072656163686564000000000000000000000000600082015250565b60006124d1601483612091565b91506124dc8261249b565b602082019050919050565b60006020820190508181036000830152612500816124c4565b9050919050565b7f756e6c6f636b54696d65206d7573742062652066757475726500000000000000600082015250565b600061253d601983612091565b915061254882612507565b602082019050919050565b6000602082019050818103600083015261256c81612530565b9050919050565b7f6d756c7469706c6965723d300000000000000000000000000000000000000000600082015250565b60006125a9600c83612091565b91506125b482612573565b602082019050919050565b600060208201905081810360008301526125d88161259c565b9050919050565b60006060820190506125f46000830186611b89565b6126016020830185611b89565b61260e6040830184611bbd565b949350505050565b61261f81611cd6565b82525050565b600060408201905061263a6000830185611bbd565b6126476020830184612616565b9392505050565b600061265982611bb3565b91507fffffffffffffffffffffffffffffffffffffffffffffffffffffffffffffffff820361268b5761268a612215565b5b600182019050919050565b7f616c7265616479206d61726b6564000000000000000000000000000000000000600082015250565b60006126cc600e83612091565b91506126d782612696565b602082019050919050565b600060208201905081810360008301526126fb816126bf565b9050919050565b7f503020616c726561647920736574000000000000000000000000000000000000600082015250565b6000612738600e83612091565b915061274382612702565b602082019050919050565b600060208201905081810360008301526127678161272b565b9050919050565b7f5030206d757374206265203e2030000000000000000000000000000000000000600082015250565b60006127a4600e83612091565b91506127af8261276e565b602082019050919050565b600060208201905081810360008301526127d381612797565b9050919050565b60006127e582611bb3565b91506127f083611bb3565b92508282026127fe81611bb3565b9150828204841483151761281557612814612215565b5b5092915050565b7f4e487b7100000000000000000000000000000000000000000000000000000000600052601260045260246000fd5b600061285682611bb3565b915061286183611bb3565b9250826128715761287061281c565b5b82820490509291505056fea2646970667358221220264c36bb8a949b214315ef0e3d78072146fc39a46aff6bab62850105f291e5db64736f6c63430008140033",
  "linkReferences": {},
  "deployedLinkReferences": {}
}