{
  "_format": "hh-sol-artifact-1",
  "contractName": "LendingVault",
  "sourceName": "contracts/vault/LendingVault.sol",
  "abi": [
    {
      "inputs": [
        {
          "internalType": "address",
          "name": "_ifrToken",
          "type": "address"
        },
        {
          "internalType": "address",
          "name": "_governance",
          "type": "address"
        }
      ],
      "stateMutability": "nonpayable",
      "type": "constructor"
    },
    {
      "inputs": [
        {
          "internalType": "address",
          "name": "owner",
          "type": "address"
        }
      ],
      "name": "OwnableInvalidOwner",
      "type": "error"
    },
    {
      "inputs": [
        {
          "internalType": "address",
          "name": "account",
          "type": "address"
        }
      ],
      "name": "OwnableUnauthorizedAccount",
      "type": "error"
    },
    {
      "inputs": [],
      "name": "ReentrancyGuardReentrantCall",
      "type": "error"
    },
    {
      "anonymous": false,
      "inputs": [
        {
          "indexed": true,
          "internalType": "uint256",
          "name": "loanId",
          "type": "uint256"
        },
        {
          "indexed": true,
          "internalType": "address",
          "name": "borrower",
          "type": "address"
        },
        {
          "indexed": false,
          "internalType": "uint256",
          "name": "offerId",
          "type": "uint256"
        },
        {
          "indexed": false,
          "internalType": "uint256",
          "name": "ifrAmount",
          "type": "uint256"
        },
        {
          "indexed": false,
          "internalType": "uint256",
          "name": "ethCollateral",
          "type": "uint256"
        }
      ],
      "name": "LoanCreated",
      "type": "event"
    },
    {
      "anonymous": false,
      "inputs": [
        {
          "indexed": true,
          "internalType": "uint256",
          "name": "loanId",
          "type": "uint256"
        },
        {
          "indexed": true,
          "internalType": "address",
          "name": "liquidator",
          "type": "address"
        },
        {
          "indexed": false,
          "internalType": "uint256",
          "name": "liquidatorBonus",
          "type": "uint256"
        },
        {
          "indexed": false,
          "internalType": "uint256",
          "name": "lenderReceived",
          "type": "uint256"
        }
      ],
      "name": "LoanLiquidated",
      "type": "event"
    },
    {
      "anonymous": false,
      "inputs": [
        {
          "indexed": true,
          "internalType": "uint256",
          "name": "loanId",
          "type": "uint256"
        },
        {
          "indexed": false,
          "internalType": "uint256",
          "name": "principal",
          "type": "uint256"
        },
        {
          "indexed": false,
          "internalType": "uint256",
          "name": "interest",
          "type": "uint256"
        }
      ],
      "name": "LoanRepaid",
      "type": "event"
    },
    {
      "anonymous": false,
      "inputs": [
        {
          "indexed": true,
          "internalType": "uint256",
          "name": "loanId",
          "type": "uint256"
        },
        {
          "indexed": false,
          "internalType": "uint256",
          "name": "collateralRatioPct",
          "type": "uint256"
        }
      ],
      "name": "MarginCallWarning",
      "type": "event"
    },
    {
      "anonymous": false,
      "inputs": [
        {
          "indexed": true,
          "internalType": "address",
          "name": "lender",
          "type": "address"
        },
        {
          "indexed": true,
          "internalType": "uint256",
          "name": "offerId",
          "type": "uint256"
        },
        {
          "indexed": false,
          "internalType": "uint256",
          "name": "amount",
          "type": "uint256"
        }
      ],
      "name": "OfferCreated",
      "type": "event"
    },
    {
      "anonymous": false,
      "inputs": [
        {
          "indexed": true,
          "internalType": "address",
          "name": "lender",
          "type": "address"
        },
        {
          "indexed": true,
          "internalType": "uint256",
          "name": "offerId",
          "type": "uint256"
        },
        {
          "indexed": false,
          "internalType": "uint256",
          "name": "addedAmount",
          "type": "uint256"
        }
      ],
      "name": "OfferIncreased",
      "type": "event"
    },
    {
      "anonymous": false,
      "inputs": [
        {
          "indexed": true,
          "internalType": "address",
          "name": "lender",
          "type": "address"
        },
        {
          "indexed": true,
          "internalType": "uint256",
          "name": "offerId",
          "type": "uint256"
        },
        {
          "indexed": false,
          "internalType": "uint256",
          "name": "amount",
          "type": "uint256"
        }
      ],
      "name": "OfferWithdrawn",
      "type": "event"
    },
    {
      "anonymous": false,
      "inputs": [
        {
          "indexed": true,
          "internalType": "address",
          "name": "previousOwner",
          "type": "address"
        },
        {
          "indexed": true,
          "internalType": "address",
          "name": "newOwner",
          "type": "address"
        }
      ],
      "name": "OwnershipTransferred",
      "type": "event"
    },
    {
      "anonymous": false,
      "inputs": [
        {
          "indexed": false,
          "internalType": "uint256",
          "name": "newPriceWei",
          "type": "uint256"
        }
      ],
      "name": "PriceUpdated",
      "type": "event"
    },
    {
      "anonymous": false,
      "inputs": [
        {
          "indexed": true,
          "internalType": "address",
          "name": "receiver",
          "type": "address"
        }
      ],
      "name": "ProtocolFeeReceiverUpdated",
      "type": "event"
    },
    {
      "inputs": [],
      "name": "INITIAL_COLLATERAL_PCT",
      "outputs": [
        {
          "internalType": "uint256",
          "name": "",
          "type": "uint256"
        }
      ],
      "stateMutability": "view",
      "type": "function"
    },
    {
      "inputs": [],
      "name": "LENDER_INTEREST_PCT",
      "outputs": [
        {
          "internalType": "uint256",
          "name": "",
          "type": "uint256"
        }
      ],
      "stateMutability": "view",
      "type": "function"
    },
    {
      "inputs": [],
      "name": "LIQUIDATION_COLLATERAL_PCT",
      "outputs": [
        {
          "internalType": "uint256",
          "name": "",
          "type": "uint256"
        }
      ],
      "stateMutability": "view",
      "type": "function"
    },
    {
      "inputs": [],
      "name": "LIQUIDATOR_BONUS_PCT",
      "outputs": [
        {
          "internalType": "uint256",
          "name": "",
          "type": "uint256"
        }
      ],
      "stateMutability": "view",
      "type": "function"
    },
    {
      "inputs": [],
      "name": "MAX_DURATION",
      "outputs": [
        {
          "internalType": "uint256",
          "name": "",
          "type": "uint256"
        }
      ],
      "stateMutability": "view",
      "type": "function"
    },
    {
      "inputs": [],
      "name": "MAX_LOANS_PER_BORROWER",
      "outputs": [
        {
          "internalType": "uint256",
          "name": "",
          "type": "uint256"
        }
      ],
      "stateMutability": "view",
      "type": "function"
    },
    {
      "inputs": [],
      "name": "MIN_DURATION",
      "outputs": [
        {
          "internalType": "uint256",
          "name": "",
          "type": "uint256"
        }
      ],
      "stateMutability": "view",
      "type": "function"
    },
    {
      "inputs": [],
      "name": "WARNING_COLLATERAL_PCT",
      "outputs": [
        {
          "internalType": "uint256",
          "name": "",
          "type": "uint256"
        }
      ],
      "stateMutability": "view",
      "type": "function"
    },
    {
      "inputs": [
        {
          "internalType": "address",
          "name": "",
          "type": "address"
        }
      ],
      "name": "activeLoanCount",
      "outputs": [
        {
          "internalType": "uint256",
          "name": "",
          "type": "uint256"
        }
      ],
      "stateMutability": "view",
      "type": "function"
    },
    {
      "inputs": [
        {
          "internalType": "uint256",
          "name": "offerId",
          "type": "uint256"
        },
        {
          "internalType": "uint256",
          "name": "ifrAmount",
          "type": "uint256"
        },
        {
          "internalType": "uint256",
          "name": "durationDays",
          "type": "uint256"
        }
      ],
      "name": "borrow",
      "outputs": [],
      "stateMutability": "payable",
      "type": "function"
    },
    {
      "inputs": [
        {
          "internalType": "uint256",
          "name": "loanId",
          "type": "uint256"
        }
      ],
      "name": "calculateInterest",
      "outputs": [
        {
          "internalType": "uint256",
          "name": "",
          "type": "uint256"
        }
      ],
      "stateMutability": "view",
      "type": "function"
    },
    {
      "inputs": [
        {
          "internalType": "uint256",
          "name": "loanId",
          "type": "uint256"
        }
      ],
      "name": "checkHealth",
      "outputs": [
        {
          "internalType": "uint256",
          "name": "ratio",
          "type": "uint256"
        }
      ],
      "stateMutability": "nonpayable",
      "type": "function"
    },
    {
      "inputs": [
        {
          "internalType": "uint256",
          "name": "amount",
          "type": "uint256"
        }
      ],
      "name": "createOffer",
      "outputs": [],
      "stateMutability": "nonpayable",
      "type": "function"
    },
    {
      "inputs": [
        {
          "internalType": "uint256",
          "name": "loanId",
          "type": "uint256"
        }
      ],
      "name": "getCollateralRatio",
      "outputs": [
        {
          "internalType": "uint256",
          "name": "",
          "type": "uint256"
        }
      ],
      "stateMutability": "view",
      "type": "function"
    },
    {
      "inputs": [],
      "name": "getInterestRate",
      "outputs": [
        {
          "internalType": "uint256",
          "name": "",
          "type": "uint256"
        }
      ],
      "stateMutability": "view",
      "type": "function"
    },
    {
      "inputs": [
        {
          "internalType": "uint256",
          "name": "loanId",
          "type": "uint256"
        }
      ],
      "name": "getLoan",
      "outputs": [
        {
          "components": [
            {
              "internalType": "address",
              "name": "borrower",
              "type": "address"
            },
            {
              "internalType": "uint256",
              "name": "offerId",
              "type": "uint256"
            },
            {
              "internalType": "uint256",
              "name": "ifrAmount",
              "type": "uint256"
            },
            {
              "internalType": "uint256",
              "name": "ethCollateral",
              "type": "uint256"
            },
            {
              "internalType": "uint256",
              "name": "startTime",
              "type": "uint256"
            },
            {
              "internalType": "uint256",
              "name": "duration",
              "type": "uint256"
            },
            {
              "internalType": "uint256",
              "name": "monthlyRateBps",
              "type": "uint256"
            },
            {
              "internalType": "bool",
              "name": "active",
              "type": "bool"
            }
          ],
          "internalType": "struct LendingVault.Loan",
          "name": "",
          "type": "tuple"
        }
      ],
      "stateMutability": "view",
      "type": "function"
    },
    {
      "inputs": [],
      "name": "getLoanCount",
      "outputs": [
        {
          "internalType": "uint256",
          "name": "",
          "type": "uint256"
        }
      ],
      "stateMutability": "view",
      "type": "function"
    },
    {
      "inputs": [
        {
          "internalType": "uint256",
          "name": "offerId",
          "type": "uint256"
        }
      ],
      "name": "getOffer",
      "outputs": [
        {
          "components": [
            {
              "internalType": "address",
              "name": "lender",
              "type": "address"
            },
            {
              "internalType": "uint256",
              "name": "availableIFR",
              "type": "uint256"
            },
            {
              "internalType": "uint256",
              "name": "lentIFR",
              "type": "uint256"
            },
            {
              "internalType": "bool",
              "name": "active",
              "type": "bool"
            }
          ],
          "internalType": "struct LendingVault.LendingOffer",
          "name": "",
          "type": "tuple"
        }
      ],
      "stateMutability": "view",
      "type": "function"
    },
    {
      "inputs": [],
      "name": "getOfferCount",
      "outputs": [
        {
          "internalType": "uint256",
          "name": "",
          "type": "uint256"
        }
      ],
      "stateMutability": "view",
      "type": "function"
    },
    {
      "inputs": [
        {
          "internalType": "uint256",
          "name": "ifrAmount",
          "type": "uint256"
        }
      ],
      "name": "getRequiredCollateral",
      "outputs": [
        {
          "internalType": "uint256",
          "name": "",
          "type": "uint256"
        }
      ],
      "stateMutability": "view",
      "type": "function"
    },
    {
      "inputs": [
        {
          "internalType": "address",
          "name": "",
          "type": "address"
        }
      ],
      "name": "hasOffer",
      "outputs": [
        {
          "internalType": "bool",
          "name": "",
          "type": "bool"
        }
      ],
      "stateMutability": "view",
      "type": "function"
    },
    {
      "inputs": [],
      "name": "ifrPriceWei",
      "outputs": [
        {
          "internalType": "uint256",
          "name": "",
          "type": "uint256"
        }
      ],
      "stateMutability": "view",
      "type": "function"
    },
    {
      "inputs": [],
      "name": "ifrToken",
      "outputs": [
        {
          "internalType": "contract IERC20",
          "name": "",
          "type": "address"
        }
      ],
      "stateMutability": "view",
      "type": "function"
    },
    {
      "inputs": [
        {
          "internalType": "uint256",
          "name": "amount",
          "type": "uint256"
        }
      ],
      "name": "increaseOffer",
      "outputs": [],
      "stateMutability": "nonpayable",
      "type": "function"
    },
    {
      "inputs": [
        {
          "internalType": "address",
          "name": "",
          "type": "address"
        }
      ],
      "name": "lenderOfferIndex",
      "outputs": [
        {
          "internalType": "uint256",
          "name": "",
          "type": "uint256"
        }
      ],
      "stateMutability": "view",
      "type": "function"
    },
    {
      "inputs": [
        {
          "internalType": "uint256",
          "name": "loanId",
          "type": "uint256"
        }
      ],
      "name": "liquidate",
      "outputs": [],
      "stateMutability": "nonpayable",
      "type": "function"
    },
    {
      "inputs": [
        {
          "internalType": "uint256",
          "name": "",
          "type": "uint256"
        }
      ],
      "name": "loans",
      "outputs": [
        {
          "internalType": "address",
          "name": "borrower",
          "type": "address"
        },
        {
          "internalType": "uint256",
          "name": "offerId",
          "type": "uint256"
        },
        {
          "internalType": "uint256",
          "name": "ifrAmount",
          "type": "uint256"
        },
        {
          "internalType": "uint256",
          "name": "ethCollateral",
          "type": "uint256"
        },
        {
          "internalType": "uint256",
          "name": "startTime",
          "type": "uint256"
        },
        {
          "internalType": "uint256",
          "name": "duration",
          "type": "uint256"
        },
        {
          "internalType": "uint256",
          "name": "monthlyRateBps",
          "type": "uint256"
        },
        {
          "internalType": "bool",
          "name": "active",
          "type": "bool"
        }
      ],
      "stateMutability": "view",
      "type": "function"
    },
    {
      "inputs": [
        {
          "internalType": "uint256",
          "name": "",
          "type": "uint256"
        }
      ],
      "name": "offers",
      "outputs": [
        {
          "internalType": "address",
          "name": "lender",
          "type": "address"
        },
        {
          "internalType": "uint256",
          "name": "availableIFR",
          "type": "uint256"
        },
        {
          "internalType": "uint256",
          "name": "lentIFR",
          "type": "uint256"
        },
        {
          "internalType": "bool",
          "name": "active",
          "type": "bool"
        }
      ],
      "stateMutability": "view",
      "type": "function"
    },
    {
      "inputs": [],
      "name": "owner",
      "outputs": [
        {
          "internalType": "address",
          "name": "",
          "type": "address"
        }
      ],
      "stateMutability": "view",
      "type": "function"
    },
    {
      "inputs": [],
      "name": "protocolFeeReceiver",
      "outputs": [
        {
          "internalType": "address",
          "name": "",
          "type": "address"
        }
      ],
      "stateMutability": "view",
      "type": "function"
    },
    {
      "inputs": [],
      "name": "renounceOwnership",
      "outputs": [],
      "stateMutability": "nonpayable",
      "type": "function"
    },
    {
      "inputs": [
        {
          "internalType": "uint256",
          "name": "loanId",
          "type": "uint256"
        }
      ],
      "name": "repay",
      "outputs": [],
      "stateMutability": "nonpayable",
      "type": "function"
    },
    {
      "inputs": [
        {
          "internalType": "uint256",
          "name": "_priceWei",
          "type": "uint256"
        }
      ],
      "name": "setIFRPrice",
      "outputs": [],
      "stateMutability": "nonpayable",
      "type": "function"
    },
    {
      "inputs": [
        {
          "internalType": "address",
          "name": "_receiver",
          "type": "address"
        }
      ],
      "name": "setProtocolFeeReceiver",
      "outputs": [],
      "stateMutability": "nonpayable",
      "type": "function"
    },
    {
      "inputs": [
        {
          "internalType": "uint256",
          "name": "loanId",
          "type": "uint256"
        }
      ],
      "name": "topUpCollateral",
      "outputs": [],
      "stateMutability": "payable",
      "type": "function"
    },
    {
      "inputs": [],
      "name": "totalAvailable",
      "outputs": [
        {
          "internalType": "uint256",
          "name": "",
          "type": "uint256"
        }
      ],
      "stateMutability": "view",
      "type": "function"
    },
    {
      "inputs": [],
      "name": "totalLent",
      "outputs": [
        {
          "internalType": "uint256",
          "name": "",
          "type": "uint256"
        }
      ],
      "stateMutability": "view",
      "type": "function"
    },
    {
      "inputs": [
        {
          "internalType": "address",
          "name": "newOwner",
          "type": "address"
        }
      ],
      "name": "transferOwnership",
      "outputs": [],
      "stateMutability": "nonpayable",
      "type": "function"
    },
    {
      "inputs": [
        {
          "internalType": "uint256",
          "name": "amount",
          "type": "uint256"
        }
      ],
      "name": "withdrawOffer",
      "outputs": [],
      "stateMutability": "nonpayable",
      "type": "function"
    }
  ],
  "bytecode": "0x60a06040523480156200001157600080fd5b506040516200464d3803806200464d8339818101604052810190620000379190620002a2565b80600073ffffffffffffffffffffffffffffffffffffffff168173ffffffffffffffffffffffffffffffffffffffff1603620000ad5760006040517f1e4fbdf7000000000000000000000000000000000000000000000000000000008152600401620000a49190620002fa565b60405180910390fd5b620000be816200017460201b60201c565b5060018081905550600073ffffffffffffffffffffffffffffffffffffffff168273ffffffffffffffffffffffffffffffffffffffff160362000138576040517f08c379a00000000000000000000000000000000000000000000000000000000081526004016200012f9062000378565b60405180910390fd5b8173ffffffffffffffffffffffffffffffffffffffff1660808173ffffffffffffffffffffffffffffffffffffffff168152505050506200039a565b60008060009054906101000a900473ffffffffffffffffffffffffffffffffffffffff169050816000806101000a81548173ffffffffffffffffffffffffffffffffffffffff021916908373ffffffffffffffffffffffffffffffffffffffff1602179055508173ffffffffffffffffffffffffffffffffffffffff168173ffffffffffffffffffffffffffffffffffffffff167f8be0079c531659141344cd1fd0a4f28419497f9722a3daafe3b4186f6b6457e060405160405180910390a35050565b600080fd5b600073ffffffffffffffffffffffffffffffffffffffff82169050919050565b60006200026a826200023d565b9050919050565b6200027c816200025d565b81146200028857600080fd5b50565b6000815190506200029c8162000271565b92915050565b60008060408385031215620002bc57620002bb62000238565b5b6000620002cc858286016200028b565b9250506020620002df858286016200028b565b9150509250929050565b620002f4816200025d565b82525050565b6000602082019050620003116000830184620002e9565b92915050565b600082825260208201905092915050565b7f746f6b656e3d3000000000000000000000000000000000000000000000000000600082015250565b60006200036060078362000317565b91506200036d8262000328565b602082019050919050565b60006020820190508181036000830152620003938162000351565b9050919050565b608051614266620003e760003960008181610b5b01528181610f72015281816111290152818161128f01528181611bc501528181611e47015281816121a40152612a6301526142666000f3fe6080604052600436106102305760003560e01c80637f4175f31161012e578063adf459ca116100ab578063d85d7f5b1161006f578063d85d7f5b14610850578063dfe8f6711461087b578063e1ec3c68146108b8578063e1faf705146108fc578063f2fde38b1461092757610230565b8063adf459ca14610797578063b1724b46146107b3578063b6a6d177146107de578063c9a4eb2314610809578063d048db371461082557610230565b806397364023116100f257806397364023146106a057806399b72fd8146106cb578063a0432e7714610708578063a269993d14610731578063a57475e01461075a57610230565b80637f4175f3146105a45780638610f045146105e157806386f176921461060a5780638a72ea6a146106355780638da5cb5b1461067557610230565b8063515dc052116101bc5780636d7c218b116101805780636d7c218b146104e15780636e574b941461050c578063715018a61461053757806373c209aa1461054e5780637b25e1731461057957610230565b8063515dc052146103f857806352196812146104235780635257b5661461044e5780635bbf7b761461047957806360c89149146104a457610230565b806339a51be51161020357806339a51be514610301578063415f12401461032c5780634579268a1461035557806346877b1a14610392578063504006ca146103bb57610230565b806309cd4e26146102355780632a17f4bb146102725780632d310a371461029b578063371fd8e6146102d8575b600080fd5b34801561024157600080fd5b5061025c60048036038101906102579190613224565b610950565b6040516102699190613260565b60405180910390f35b34801561027e57600080fd5b5061029960048036038101906102949190613224565b6109c7565b005b3480156102a757600080fd5b506102c260048036038101906102bd9190613224565b610cc8565b6040516102cf9190613260565b60405180910390f35b3480156102e457600080fd5b506102ff60048036038101906102fa9190613224565b610df7565b005b34801561030d57600080fd5b506103166114a9565b60405161032391906132bc565b60405180910390f35b34801561033857600080fd5b50610353600480360381019061034e9190613224565b6114cf565b005b34801561036157600080fd5b5061037c60048036038101906103779190613224565b611835565b6040516103899190613365565b60405180910390f35b34801561039e57600080fd5b506103b960048036038101906103b491906133ac565b61193d565b005b3480156103c757600080fd5b506103e260048036038101906103dd9190613224565b6119cc565b6040516103ef919061347b565b60405180910390f35b34801561040457600080fd5b5061040d611afd565b60405161041a9190613260565b60405180910390f35b34801561042f57600080fd5b50610438611b02565b6040516104459190613260565b60405180910390f35b34801561045a57600080fd5b50610463611b0f565b6040516104709190613260565b60405180910390f35b34801561048557600080fd5b5061048e611bc3565b60405161049b91906134f6565b60405180910390f35b3480156104b057600080fd5b506104cb60048036038101906104c691906133ac565b611be7565b6040516104d89190613260565b60405180910390f35b3480156104ed57600080fd5b506104f6611bff565b6040516105039190613260565b60405180910390f35b34801561051857600080fd5b50610521611c05565b60405161052e9190613260565b60405180910390f35b34801561054357600080fd5b5061054c611c0a565b005b34801561055a57600080fd5b50610563611c1e565b6040516105709190613260565b60405180910390f35b34801561058557600080fd5b5061058e611c23565b60405161059b9190613260565b60405180910390f35b3480156105b057600080fd5b506105cb60048036038101906105c691906133ac565b611c28565b6040516105d89190613260565b60405180910390f35b3480156105ed57600080fd5b5061060860048036038101906106039190613224565b611c40565b005b34801561061657600080fd5b5061061f611f7e565b60405161062c9190613260565b60405180910390f35b34801561064157600080fd5b5061065c60048036038101906106579190613224565b611f83565b60405161066c9493929190613520565b60405180910390f35b34801561068157600080fd5b5061068a611ff0565b60405161069791906132bc565b60405180910390f35b3480156106ac57600080fd5b506106b5612019565b6040516106c29190613260565b60405180910390f35b3480156106d757600080fd5b506106f260048036038101906106ed91906133ac565b61201e565b6040516106ff9190613565565b60405180910390f35b34801561071457600080fd5b5061072f600480360381019061072a9190613224565b61203e565b005b34801561073d57600080fd5b5061075860048036038101906107539190613224565b6120ca565b005b34801561076657600080fd5b50610781600480360381019061077c9190613224565b61247e565b60405161078e9190613260565b60405180910390f35b6107b160048036038101906107ac9190613580565b612557565b005b3480156107bf57600080fd5b506107c8612ba2565b6040516107d59190613260565b60405180910390f35b3480156107ea57600080fd5b506107f3612baa565b6040516108009190613260565b60405180910390f35b610823600480360381019061081e9190613224565b612bb1565b005b34801561083157600080fd5b5061083a612d73565b6040516108479190613260565b60405180910390f35b34801561085c57600080fd5b50610865612d80565b6040516108729190613260565b60405180910390f35b34801561088757600080fd5b506108a2600480360381019061089d9190613224565b612d86565b6040516108af9190613260565b60405180910390f35b3480156108c457600080fd5b506108df60048036038101906108da9190613224565b612e99565b6040516108f39897969594939291906135d3565b60405180910390f35b34801561090857600080fd5b50610911612f1e565b60405161091e9190613260565b60405180910390f35b34801561093357600080fd5b5061094e600480360381019061094991906133ac565b612f24565b005b60008060085411610996576040517f08c379a000000000000000000000000000000000000000000000000000000000815260040161098d906136ae565b60405180910390fd5b64174876e80060c8600854846109ac91906136fd565b6109b691906136fd565b6109c0919061376e565b9050919050565b6109cf612faa565b60008111610a12576040517f08c379a0000000000000000000000000000000000000000000000000000000008152600401610a09906137eb565b60405180910390fd5b600560003373ffffffffffffffffffffffffffffffffffffffff1673ffffffffffffffffffffffffffffffffffffffff16815260200190815260200160002060009054906101000a900460ff16610a9e576040517f08c379a0000000000000000000000000000000000000000000000000000000008152600401610a9590613857565b60405180910390fd5b6000600460003373ffffffffffffffffffffffffffffffffffffffff1673ffffffffffffffffffffffffffffffffffffffff168152602001908152602001600020549050600060028281548110610af857610af7613877565b5b906000526020600020906004020190508060030160009054906101000a900460ff16610b59576040517f08c379a0000000000000000000000000000000000000000000000000000000008152600401610b50906138f2565b60405180910390fd5b7f000000000000000000000000000000000000000000000000000000000000000073ffffffffffffffffffffffffffffffffffffffff166323b872dd3330866040518463ffffffff1660e01b8152600401610bb693929190613912565b6020604051808303816000875af1158015610bd5573d6000803e3d6000fd5b505050506040513d601f19601f82011682018060405250810190610bf99190613975565b610c38576040517f08c379a0000000000000000000000000000000000000000000000000000000008152600401610c2f906139ee565b60405180910390fd5b82816001016000828254610c4c9190613a0e565b925050819055508260096000828254610c659190613a0e565b92505081905550813373ffffffffffffffffffffffffffffffffffffffff167f655b36e2ba57c092f7bfbbdcf7c8aaaf957f6d2796ebe1324cd5c4a5e561ff3b85604051610cb39190613260565b60405180910390a35050610cc5612ff0565b50565b60006003805490508210610d11576040517f08c379a0000000000000000000000000000000000000000000000000000000008152600401610d0890613a8e565b60405180910390fd5b600060038381548110610d2757610d26613877565b5b90600052602060002090600802019050600081600201541480610d4c57506000600854145b15610d7a577fffffffffffffffffffffffffffffffffffffffffffffffffffffffffffffffff915050610df2565b6000633b9aca006008548360020154610d9391906136fd565b610d9d919061376e565b905060008103610dd1577fffffffffffffffffffffffffffffffffffffffffffffffffffffffffffffffff92505050610df2565b8060648360030154610de391906136fd565b610ded919061376e565b925050505b919050565b610dff612faa565b6003805490508110610e46576040517f08c379a0000000000000000000000000000000000000000000000000000000008152600401610e3d90613a8e565b60405180910390fd5b600060038281548110610e5c57610e5b613877565b5b906000526020600020906008020190508060070160009054906101000a900460ff16610ebd576040517f08c379a0000000000000000000000000000000000000000000000000000000008152600401610eb490613afa565b60405180910390fd5b3373ffffffffffffffffffffffffffffffffffffffff168160000160009054906101000a900473ffffffffffffffffffffffffffffffffffffffff1673ffffffffffffffffffffffffffffffffffffffff1614610f4f576040517f08c379a0000000000000000000000000000000000000000000000000000000008152600401610f4690613b66565b60405180910390fd5b6000610f5a8361247e565b90506000818360020154610f6e9190613a0e565b90507f000000000000000000000000000000000000000000000000000000000000000073ffffffffffffffffffffffffffffffffffffffff166323b872dd3330846040518463ffffffff1660e01b8152600401610fcd93929190613912565b6020604051808303816000875af1158015610fec573d6000803e3d6000fd5b505050506040513d601f19601f820116820180604052508101906110109190613975565b61104f576040517f08c379a0000000000000000000000000000000000000000000000000000000008152600401611046906139ee565b60405180910390fd5b6000606460328461106091906136fd565b61106a919061376e565b90506000818461107a9190613b86565b90506000600286600101548154811061109657611095613877565b5b9060005260206000209060040201905085600201548160010160008282546110be9190613a0e565b9250508190555085600201548160020160008282546110dd9190613b86565b925050819055508560020154600960008282546110fa9190613a0e565b925050819055508560020154600a60008282546111179190613b86565b925050819055506000831115611229577f000000000000000000000000000000000000000000000000000000000000000073ffffffffffffffffffffffffffffffffffffffff1663a9059cbb8260000160009054906101000a900473ffffffffffffffffffffffffffffffffffffffff16856040518363ffffffff1660e01b81526004016111a6929190613bba565b6020604051808303816000875af11580156111c5573d6000803e3d6000fd5b505050506040513d601f19601f820116820180604052508101906111e99190613975565b611228576040517f08c379a000000000000000000000000000000000000000000000000000000000815260040161121f90613c2f565b60405180910390fd5b5b6000821180156112885750600073ffffffffffffffffffffffffffffffffffffffff16600760009054906101000a900473ffffffffffffffffffffffffffffffffffffffff1673ffffffffffffffffffffffffffffffffffffffff1614155b1561138d577f000000000000000000000000000000000000000000000000000000000000000073ffffffffffffffffffffffffffffffffffffffff1663a9059cbb600760009054906101000a900473ffffffffffffffffffffffffffffffffffffffff16846040518363ffffffff1660e01b815260040161130a929190613bba565b6020604051808303816000875af1158015611329573d6000803e3d6000fd5b505050506040513d601f19601f8201168201806040525081019061134d9190613975565b61138c576040517f08c379a000000000000000000000000000000000000000000000000000000000815260040161138390613c9b565b60405180910390fd5b5b60008660030154905060008760070160006101000a81548160ff02191690831515021790555060008760030181905550600660003373ffffffffffffffffffffffffffffffffffffffff1673ffffffffffffffffffffffffffffffffffffffff168152602001908152602001600020600081548092919061140d90613cbb565b91905055503373ffffffffffffffffffffffffffffffffffffffff166108fc829081150290604051600060405180830381858888f19350505050158015611458573d6000803e3d6000fd5b50877fd9cfbcfb9ae5d65b8d34072de4575f602ee25cf3715bc05c291701fe9e258f9a88600201548860405161148f929190613ce4565b60405180910390a2505050505050506114a6612ff0565b50565b600760009054906101000a900473ffffffffffffffffffffffffffffffffffffffff1681565b6114d7612faa565b600380549050811061151e576040517f08c379a000000000000000000000000000000000000000000000000000000000815260040161151590613a8e565b60405180910390fd5b60006003828154811061153457611533613877565b5b906000526020600020906008020190508060070160009054906101000a900460ff16611595576040517f08c379a000000000000000000000000000000000000000000000000000000000815260040161158c90613afa565b60405180910390fd5b60006115a083610cc8565b9050607881106115e5576040517f08c379a00000000000000000000000000000000000000000000000000000000081526004016115dc90613d59565b60405180910390fd5b600082600301549050600060646005836115ff91906136fd565b611609919061376e565b9050600081836116199190613b86565b905060008560070160006101000a81548160ff021916908315150217905550600085600301819055506000600286600101548154811061165c5761165b613877565b5b9060005260206000209060040201905085600201548160020160008282546116849190613b86565b925050819055508560020154600a60008282546116a19190613b86565b92505081905550600660008760000160009054906101000a900473ffffffffffffffffffffffffffffffffffffffff1673ffffffffffffffffffffffffffffffffffffffff1673ffffffffffffffffffffffffffffffffffffffff168152602001908152602001600020600081548092919061171c90613cbb565b91905055503373ffffffffffffffffffffffffffffffffffffffff166108fc849081150290604051600060405180830381858888f19350505050158015611767573d6000803e3d6000fd5b508060000160009054906101000a900473ffffffffffffffffffffffffffffffffffffffff1673ffffffffffffffffffffffffffffffffffffffff166108fc839081150290604051600060405180830381858888f193505050501580156117d2573d6000803e3d6000fd5b503373ffffffffffffffffffffffffffffffffffffffff16877fd1b144c94c58ceab69737edeed9e57e7a7bf0e63c3232da2b7c1e65d7ab7f3d0858560405161181c929190613ce4565b60405180910390a3505050505050611832612ff0565b50565b61183d61314c565b6002805490508210611884576040517f08c379a000000000000000000000000000000000000000000000000000000000815260040161187b90613dc5565b60405180910390fd5b6002828154811061189857611897613877565b5b90600052602060002090600402016040518060800160405290816000820160009054906101000a900473ffffffffffffffffffffffffffffffffffffffff1673ffffffffffffffffffffffffffffffffffffffff1673ffffffffffffffffffffffffffffffffffffffff16815260200160018201548152602001600282015481526020016003820160009054906101000a900460ff1615151515815250509050919050565b611945612ff9565b80600760006101000a81548173ffffffffffffffffffffffffffffffffffffffff021916908373ffffffffffffffffffffffffffffffffffffffff1602179055508073ffffffffffffffffffffffffffffffffffffffff167f76203fab169061f503a4139455a7dfc20cc2d5a59c97d5bb810e431f4059aad760405160405180910390a250565b6119d461318c565b6003805490508210611a1b576040517f08c379a0000000000000000000000000000000000000000000000000000000008152600401611a1290613a8e565b60405180910390fd5b60038281548110611a2f57611a2e613877565b5b9060005260206000209060080201604051806101000160405290816000820160009054906101000a900473ffffffffffffffffffffffffffffffffffffffff1673ffffffffffffffffffffffffffffffffffffffff1673ffffffffffffffffffffffffffffffffffffffff1681526020016001820154815260200160028201548152602001600382015481526020016004820154815260200160058201548152602001600682015481526020016007820160009054906101000a900460ff1615151515815250509050919050565b600581565b6000600380549050905090565b600080600a54600954611b229190613a0e565b905060008103611b365760c8915050611bc0565b6000816064600a54611b4891906136fd565b611b52919061376e565b905060198111611b675760c892505050611bc0565b60328111611b7b5761012c92505050611bc0565b604b8111611b8f576101f492505050611bc0565b605a8111611ba35761032092505050611bc0565b6064811015611bb8576105dc92505050611bc0565b6109c4925050505b90565b7f000000000000000000000000000000000000000000000000000000000000000081565b60066020528060005260406000206000915090505481565b600a5481565b60c881565b611c12612ff9565b611c1c6000613080565b565b600a81565b609681565b60046020528060005260406000206000915090505481565b611c48612faa565b600560003373ffffffffffffffffffffffffffffffffffffffff1673ffffffffffffffffffffffffffffffffffffffff16815260200190815260200160002060009054906101000a900460ff16611cd4576040517f08c379a0000000000000000000000000000000000000000000000000000000008152600401611ccb90613857565b60405180910390fd5b6000600460003373ffffffffffffffffffffffffffffffffffffffff1673ffffffffffffffffffffffffffffffffffffffff168152602001908152602001600020549050600060028281548110611d2e57611d2d613877565b5b906000526020600020906004020190508060030160009054906101000a900460ff16611d8f576040517f08c379a0000000000000000000000000000000000000000000000000000000008152600401611d86906138f2565b60405180910390fd5b8281600101541015611dd6576040517f08c379a0000000000000000000000000000000000000000000000000000000008152600401611dcd90613e31565b60405180910390fd5b82816001016000828254611dea9190613b86565b925050819055508260096000828254611e039190613b86565b9250508190555060008160010154148015611e22575060008160020154145b15611e455760008160030160006101000a81548160ff0219169083151502179055505b7f000000000000000000000000000000000000000000000000000000000000000073ffffffffffffffffffffffffffffffffffffffff1663a9059cbb33856040518363ffffffff1660e01b8152600401611ea0929190613bba565b6020604051808303816000875af1158015611ebf573d6000803e3d6000fd5b505050506040513d601f19601f82011682018060405250810190611ee39190613975565b611f22576040517f08c379a0000000000000000000000000000000000000000000000000000000008152600401611f19906139ee565b60405180910390fd5b813373ffffffffffffffffffffffffffffffffffffffff167fddcf04baebd2ce796d741a108dd14d6daa667abcbda3edd4f29a559b1265bfdb85604051611f699190613260565b60405180910390a35050611f7b612ff0565b50565b603281565b60028181548110611f9357600080fd5b90600052602060002090600402016000915090508060000160009054906101000a900473ffffffffffffffffffffffffffffffffffffffff16908060010154908060020154908060030160009054906101000a900460ff16905084565b60008060009054906101000a900473ffffffffffffffffffffffffffffffffffffffff16905090565b607881565b60056020528060005260406000206000915054906101000a900460ff1681565b612046612ff9565b60008111612089576040517f08c379a000000000000000000000000000000000000000000000000000000000815260040161208090613e9d565b60405180910390fd5b806008819055507f66cbca4f3c64fecf1dcb9ce094abcf7f68c3450a1d4e3a8e917dd621edb4ebe0816040516120bf9190613260565b60405180910390a150565b6120d2612faa565b60008111612115576040517f08c379a000000000000000000000000000000000000000000000000000000000815260040161210c906137eb565b60405180910390fd5b600560003373ffffffffffffffffffffffffffffffffffffffff1673ffffffffffffffffffffffffffffffffffffffff16815260200190815260200160002060009054906101000a900460ff16156121a2576040517f08c379a000000000000000000000000000000000000000000000000000000000815260040161219990613f09565b60405180910390fd5b7f000000000000000000000000000000000000000000000000000000000000000073ffffffffffffffffffffffffffffffffffffffff166323b872dd3330846040518463ffffffff1660e01b81526004016121ff93929190613912565b6020604051808303816000875af115801561221e573d6000803e3d6000fd5b505050506040513d601f19601f820116820180604052508101906122429190613975565b612281576040517f08c379a0000000000000000000000000000000000000000000000000000000008152600401612278906139ee565b60405180910390fd5b60006002805490509050600260405180608001604052803373ffffffffffffffffffffffffffffffffffffffff1681526020018481526020016000815260200160011515815250908060018154018082558091505060019003906000526020600020906004020160009091909190915060008201518160000160006101000a81548173ffffffffffffffffffffffffffffffffffffffff021916908373ffffffffffffffffffffffffffffffffffffffff160217905550602082015181600101556040820151816002015560608201518160030160006101000a81548160ff021916908315150217905550505080600460003373ffffffffffffffffffffffffffffffffffffffff1673ffffffffffffffffffffffffffffffffffffffff168152602001908152602001600020819055506001600560003373ffffffffffffffffffffffffffffffffffffffff1673ffffffffffffffffffffffffffffffffffffffff16815260200190815260200160002060006101000a81548160ff021916908315150217905550816009600082825461241c9190613a0e565b92505081905550803373ffffffffffffffffffffffffffffffffffffffff167fe899a6e29fab942958a400b4db4c5dec136446a7966a69e0011735027a33fff38460405161246a9190613260565b60405180910390a35061247b612ff0565b50565b600060038054905082106124c7576040517f08c379a00000000000000000000000000000000000000000000000000000000081526004016124be90613a8e565b60405180910390fd5b6000600383815481106124dd576124dc613877565b5b9060005260206000209060080201905060008160040154426124ff9190613b86565b9050600062278d0082612512919061376e565b90506000810361252157600190505b612710818460060154856002015461253991906136fd565b61254391906136fd565b61254d919061376e565b9350505050919050565b61255f612faa565b600082116125a2576040517f08c379a0000000000000000000000000000000000000000000000000000000008152600401612599906137eb565b60405180910390fd5b601e81101580156125b5575061016d8111155b6125f4576040517f08c379a00000000000000000000000000000000000000000000000000000000081526004016125eb90613f75565b60405180910390fd5b600a600660003373ffffffffffffffffffffffffffffffffffffffff1673ffffffffffffffffffffffffffffffffffffffff1681526020019081526020016000205410612676576040517f08c379a000000000000000000000000000000000000000000000000000000000815260040161266d90613fe1565b60405180910390fd5b60028054905083106126bd576040517f08c379a00000000000000000000000000000000000000000000000000000000081526004016126b490613dc5565b60405180910390fd5b6000600284815481106126d3576126d2613877565b5b906000526020600020906004020190508060030160009054906101000a900460ff16612734576040517f08c379a000000000000000000000000000000000000000000000000000000000815260040161272b906138f2565b60405180910390fd5b828160010154101561277b576040517f08c379a00000000000000000000000000000000000000000000000000000000081526004016127729061404d565b60405180910390fd5b3373ffffffffffffffffffffffffffffffffffffffff168160000160009054906101000a900473ffffffffffffffffffffffffffffffffffffffff1673ffffffffffffffffffffffffffffffffffffffff160361280d576040517f08c379a0000000000000000000000000000000000000000000000000000000008152600401612804906140b9565b60405180910390fd5b600061281884610950565b90508034101561285d576040517f08c379a000000000000000000000000000000000000000000000000000000000815260040161285490614125565b60405180910390fd5b6000612867611b0f565b90508483600101600082825461287d9190613b86565b92505081905550848360020160008282546128989190613a0e565b9250508190555084600960008282546128b19190613b86565b9250508190555084600a60008282546128ca9190613a0e565b92505081905550600660003373ffffffffffffffffffffffffffffffffffffffff1673ffffffffffffffffffffffffffffffffffffffff168152602001908152602001600020600081548092919061292190614145565b91905055506000600380549050905060036040518061010001604052803373ffffffffffffffffffffffffffffffffffffffff168152602001898152602001888152602001348152602001428152602001620151808861298191906136fd565b815260200184815260200160011515815250908060018154018082558091505060019003906000526020600020906008020160009091909190915060008201518160000160006101000a81548173ffffffffffffffffffffffffffffffffffffffff021916908373ffffffffffffffffffffffffffffffffffffffff1602179055506020820151816001015560408201518160020155606082015181600301556080820151816004015560a0820151816005015560c0820151816006015560e08201518160070160006101000a81548160ff02191690831515021790555050507f000000000000000000000000000000000000000000000000000000000000000073ffffffffffffffffffffffffffffffffffffffff1663a9059cbb33886040518363ffffffff1660e01b8152600401612abc929190613bba565b6020604051808303816000875af1158015612adb573d6000803e3d6000fd5b505050506040513d601f19601f82011682018060405250810190612aff9190613975565b612b3e576040517f08c379a0000000000000000000000000000000000000000000000000000000008152600401612b35906139ee565b60405180910390fd5b3373ffffffffffffffffffffffffffffffffffffffff16817fb2cca1719ad611d325136b9c9a4357f412d33694d93c60d4c1b6e922d524cf59898934604051612b899392919061418d565b60405180910390a350505050612b9d612ff0565b505050565b6301e1338081565b62278d0081565b612bb9612faa565b6003805490508110612c00576040517f08c379a0000000000000000000000000000000000000000000000000000000008152600401612bf790613a8e565b60405180910390fd5b600060038281548110612c1657612c15613877565b5b906000526020600020906008020190508060070160009054906101000a900460ff16612c77576040517f08c379a0000000000000000000000000000000000000000000000000000000008152600401612c6e90613afa565b60405180910390fd5b3373ffffffffffffffffffffffffffffffffffffffff168160000160009054906101000a900473ffffffffffffffffffffffffffffffffffffffff1673ffffffffffffffffffffffffffffffffffffffff1614612d09576040517f08c379a0000000000000000000000000000000000000000000000000000000008152600401612d0090613b66565b60405180910390fd5b60003411612d4c576040517f08c379a0000000000000000000000000000000000000000000000000000000008152600401612d4390614210565b60405180910390fd5b34816003016000828254612d609190613a0e565b9250508190555050612d70612ff0565b50565b6000600280549050905090565b60095481565b60006003805490508210612dcf576040517f08c379a0000000000000000000000000000000000000000000000000000000008152600401612dc690613a8e565b60405180910390fd5b600060038381548110612de557612de4613877565b5b906000526020600020906008020190508060070160009054906101000a900460ff16612e46576040517f08c379a0000000000000000000000000000000000000000000000000000000008152600401612e3d90613afa565b60405180910390fd5b612e4f83610cc8565b91506096821015612e9357827f57f47e1b5f3586a5f531c363f45c26908a18b6d244118d330ab3eab3e14792be83604051612e8a9190613260565b60405180910390a25b50919050565b60038181548110612ea957600080fd5b90600052602060002090600802016000915090508060000160009054906101000a900473ffffffffffffffffffffffffffffffffffffffff16908060010154908060020154908060030154908060040154908060050154908060060154908060070160009054906101000a900460ff16905088565b60085481565b612f2c612ff9565b600073ffffffffffffffffffffffffffffffffffffffff168173ffffffffffffffffffffffffffffffffffffffff1603612f9e5760006040517f1e4fbdf7000000000000000000000000000000000000000000000000000000008152600401612f9591906132bc565b60405180910390fd5b612fa781613080565b50565b600260015403612fe6576040517f3ee5aeb500000000000000000000000000000000000000000000000000000000815260040160405180910390fd5b6002600181905550565b60018081905550565b613001613144565b73ffffffffffffffffffffffffffffffffffffffff1661301f611ff0565b73ffffffffffffffffffffffffffffffffffffffff161461307e57613042613144565b6040517f118cdaa700000000000000000000000000000000000000000000000000000000815260040161307591906132bc565b60405180910390fd5b565b60008060009054906101000a900473ffffffffffffffffffffffffffffffffffffffff169050816000806101000a81548173ffffffffffffffffffffffffffffffffffffffff021916908373ffffffffffffffffffffffffffffffffffffffff1602179055508173ffffffffffffffffffffffffffffffffffffffff168173ffffffffffffffffffffffffffffffffffffffff167f8be0079c531659141344cd1fd0a4f28419497f9722a3daafe3b4186f6b6457e060405160405180910390a35050565b600033905090565b6040518060800160405280600073ffffffffffffffffffffffffffffffffffffffff16815260200160008152602001600081526020016000151581525090565b604051806101000160405280600073ffffffffffffffffffffffffffffffffffffffff1681526020016000815260200160008152602001600081526020016000815260200160008152602001600081526020016000151581525090565b600080fd5b6000819050919050565b613201816131ee565b811461320c57600080fd5b50565b60008135905061321e816131f8565b92915050565b60006020828403121561323a576132396131e9565b5b60006132488482850161320f565b91505092915050565b61325a816131ee565b82525050565b60006020820190506132756000830184613251565b92915050565b600073ffffffffffffffffffffffffffffffffffffffff82169050919050565b60006132a68261327b565b9050919050565b6132b68161329b565b82525050565b60006020820190506132d160008301846132ad565b92915050565b6132e08161329b565b82525050565b6132ef816131ee565b82525050565b60008115159050919050565b61330a816132f5565b82525050565b60808201600082015161332660008501826132d7565b50602082015161333960208501826132e6565b50604082015161334c60408501826132e6565b50606082015161335f6060850182613301565b50505050565b600060808201905061337a6000830184613310565b92915050565b6133898161329b565b811461339457600080fd5b50565b6000813590506133a681613380565b92915050565b6000602082840312156133c2576133c16131e9565b5b60006133d084828501613397565b91505092915050565b610100820160008201516133f060008501826132d7565b50602082015161340360208501826132e6565b50604082015161341660408501826132e6565b50606082015161342960608501826132e6565b50608082015161343c60808501826132e6565b5060a082015161344f60a08501826132e6565b5060c082015161346260c08501826132e6565b5060e082015161347560e0850182613301565b50505050565b60006101008201905061349160008301846133d9565b92915050565b6000819050919050565b60006134bc6134b76134b28461327b565b613497565b61327b565b9050919050565b60006134ce826134a1565b9050919050565b60006134e0826134c3565b9050919050565b6134f0816134d5565b82525050565b600060208201905061350b60008301846134e7565b92915050565b61351a816132f5565b82525050565b600060808201905061353560008301876132ad565b6135426020830186613251565b61354f6040830185613251565b61355c6060830184613511565b95945050505050565b600060208201905061357a6000830184613511565b92915050565b600080600060608486031215613599576135986131e9565b5b60006135a78682870161320f565b93505060206135b88682870161320f565b92505060406135c98682870161320f565b9150509250925092565b6000610100820190506135e9600083018b6132ad565b6135f6602083018a613251565b6136036040830189613251565b6136106060830188613251565b61361d6080830187613251565b61362a60a0830186613251565b61363760c0830185613251565b61364460e0830184613511565b9998505050505050505050565b600082825260208201905092915050565b7f7072696365206e6f742073657400000000000000000000000000000000000000600082015250565b6000613698600d83613651565b91506136a382613662565b602082019050919050565b600060208201905081810360008301526136c78161368b565b9050919050565b7f4e487b7100000000000000000000000000000000000000000000000000000000600052601160045260246000fd5b6000613708826131ee565b9150613713836131ee565b9250828202613721816131ee565b91508282048414831517613738576137376136ce565b5b5092915050565b7f4e487b7100000000000000000000000000000000000000000000000000000000600052601260045260246000fd5b6000613779826131ee565b9150613784836131ee565b9250826137945761379361373f565b5b828204905092915050565b7f616d6f756e743d30000000000000000000000000000000000000000000000000600082015250565b60006137d5600883613651565b91506137e08261379f565b602082019050919050565b60006020820190508181036000830152613804816137c8565b9050919050565b7f6e6f206f66666572000000000000000000000000000000000000000000000000600082015250565b6000613841600883613651565b915061384c8261380b565b602082019050919050565b6000602082019050818103600083015261387081613834565b9050919050565b7f4e487b7100000000000000000000000000000000000000000000000000000000600052603260045260246000fd5b7f6f66666572206e6f742061637469766500000000000000000000000000000000600082015250565b60006138dc601083613651565b91506138e7826138a6565b602082019050919050565b6000602082019050818103600083015261390b816138cf565b9050919050565b600060608201905061392760008301866132ad565b61393460208301856132ad565b6139416040830184613251565b949350505050565b613952816132f5565b811461395d57600080fd5b50565b60008151905061396f81613949565b92915050565b60006020828403121561398b5761398a6131e9565b5b600061399984828501613960565b91505092915050565b7f7472616e73666572206661696c65640000000000000000000000000000000000600082015250565b60006139d8600f83613651565b91506139e3826139a2565b602082019050919050565b60006020820190508181036000830152613a07816139cb565b9050919050565b6000613a19826131ee565b9150613a24836131ee565b9250828201905080821115613a3c57613a3b6136ce565b5b92915050565b7f696e76616c6964206c6f616e4964000000000000000000000000000000000000600082015250565b6000613a78600e83613651565b9150613a8382613a42565b602082019050919050565b60006020820190508181036000830152613aa781613a6b565b9050919050565b7f6c6f616e206e6f74206163746976650000000000000000000000000000000000600082015250565b6000613ae4600f83613651565b9150613aef82613aae565b602082019050919050565b60006020820190508181036000830152613b1381613ad7565b9050919050565b7f6e6f7420626f72726f7765720000000000000000000000000000000000000000600082015250565b6000613b50600c83613651565b9150613b5b82613b1a565b602082019050919050565b60006020820190508181036000830152613b7f81613b43565b9050919050565b6000613b91826131ee565b9150613b9c836131ee565b9250828203905081811115613bb457613bb36136ce565b5b92915050565b6000604082019050613bcf60008301856132ad565b613bdc6020830184613251565b9392505050565b7f6c656e646572207472616e73666572206661696c656400000000000000000000600082015250565b6000613c19601683613651565b9150613c2482613be3565b602082019050919050565b60006020820190508181036000830152613c4881613c0c565b9050919050565b7f70726f746f636f6c207472616e73666572206661696c65640000000000000000600082015250565b6000613c85601883613651565b9150613c9082613c4f565b602082019050919050565b60006020820190508181036000830152613cb481613c78565b9050919050565b6000613cc6826131ee565b915060008203613cd957613cd86136ce565b5b600182039050919050565b6000604082019050613cf96000830185613251565b613d066020830184613251565b9392505050565b7f6e6f74206c6971756964617461626c6500000000000000000000000000000000600082015250565b6000613d43601083613651565b9150613d4e82613d0d565b602082019050919050565b60006020820190508181036000830152613d7281613d36565b9050919050565b7f696e76616c6964206f6666657249640000000000000000000000000000000000600082015250565b6000613daf600f83613651565b9150613dba82613d79565b602082019050919050565b60006020820190508181036000830152613dde81613da2565b9050919050565b7f696e73756666696369656e7420617661696c61626c6500000000000000000000600082015250565b6000613e1b601683613651565b9150613e2682613de5565b602082019050919050565b60006020820190508181036000830152613e4a81613e0e565b9050919050565b7f70726963653d3000000000000000000000000000000000000000000000000000600082015250565b6000613e87600783613651565b9150613e9282613e51565b602082019050919050565b60006020820190508181036000830152613eb681613e7a565b9050919050565b7f6f66666572206578697374730000000000000000000000000000000000000000600082015250565b6000613ef3600c83613651565b9150613efe82613ebd565b602082019050919050565b60006020820190508181036000830152613f2281613ee6565b9050919050565b7f6475726174696f6e3a2033302d33363520646179730000000000000000000000600082015250565b6000613f5f601583613651565b9150613f6a82613f29565b602082019050919050565b60006020820190508181036000830152613f8e81613f52565b9050919050565b7f6d6178206c6f616e732072656163686564000000000000000000000000000000600082015250565b6000613fcb601183613651565b9150613fd682613f95565b602082019050919050565b60006020820190508181036000830152613ffa81613fbe565b9050919050565b7f696e73756666696369656e742049465200000000000000000000000000000000600082015250565b6000614037601083613651565b915061404282614001565b602082019050919050565b600060208201905081810360008301526140668161402a565b9050919050565b7f63616e6e6f742073656c662d626f72726f770000000000000000000000000000600082015250565b60006140a3601283613651565b91506140ae8261406d565b602082019050919050565b600060208201905081810360008301526140d281614096565b9050919050565b7f696e73756666696369656e7420636f6c6c61746572616c000000000000000000600082015250565b600061410f601783613651565b915061411a826140d9565b602082019050919050565b6000602082019050818103600083015261413e81614102565b9050919050565b6000614150826131ee565b91507fffffffffffffffffffffffffffffffffffffffffffffffffffffffffffffffff8203614182576141816136ce565b5b600182019050919050565b60006060820190506141a26000830186613251565b6141af6020830185613251565b6141bc6040830184613251565b949350505050565b7f6e6f204554482073656e74000000000000000000000000000000000000000000600082015250565b60006141fa600b83613651565b9150614205826141c4565b602082019050919050565b60006020820190508181036000830152614229816141ed565b905091905056fea2646970667358221220bdd533a0556664444732d4696e330023b74417a93cfd9c76701f7fc6b0d7122f64736f6c63430008140033",
  "linkReferences": {},
  "deployedLinkReferences": {}
}